{
	"contracts/Test.sol": {
		"Test": {
			"abi": [
				{
					"inputs": [],
					"name": "test",
					"outputs": [
						{
							"internalType": "uint256",
							"name": "len1",
							"type": "uint256"
						},
						{
							"internalType": "bytes1",
							"name": "b1",
							"type": "bytes1"
						}
					],
					"stateMutability": "pure",
					"type": "function"
				}
			],
			"devdoc": {
				"kind": "dev",
				"methods": {},
				"version": 1
			},
			"evm": {
				"assembly": "    /* \"contracts/Test.sol\":66:507  contract  Test{... */\n  mstore(0x40, 0x80)\n  callvalue\n  dup1\n  iszero\n  tag_1\n  jumpi\n  0x00\n  dup1\n  revert\ntag_1:\n  pop\n  dataSize(sub_0)\n  dup1\n  dataOffset(sub_0)\n  0x00\n  codecopy\n  0x00\n  return\nstop\n\nsub_0: assembly {\n        /* \"contracts/Test.sol\":66:507  contract  Test{... */\n      mstore(0x40, 0x80)\n      callvalue\n      dup1\n      iszero\n      tag_1\n      jumpi\n      0x00\n      dup1\n      revert\n    tag_1:\n      pop\n      jumpi(tag_2, lt(calldatasize, 0x04))\n      shr(0xe0, calldataload(0x00))\n      dup1\n      0xf8a8fd6d\n      eq\n      tag_3\n      jumpi\n    tag_2:\n      0x00\n      dup1\n      revert\n        /* \"contracts/Test.sol\":87:500  function test() pure public returns(uint len1,bytes1 b1){... */\n    tag_3:\n      tag_4\n      tag_5\n      jump\t// in\n    tag_4:\n      mload(0x40)\n      tag_6\n      swap3\n      swap2\n      swap1\n      tag_7\n      jump\t// in\n    tag_6:\n      mload(0x40)\n      dup1\n      swap2\n      sub\n      swap1\n      return\n    tag_5:\n        /* \"contracts/Test.sol\":123:132  uint len1 */\n      0x00\n        /* \"contracts/Test.sol\":133:142  bytes1 b1 */\n      dup1\n        /* \"contracts/Test.sol\":154:171  bytes memory bts1 */\n      0x00\n        /* \"contracts/Test.sol\":154:179  bytes memory bts1 = \"btc\" */\n      mload(0x40)\n      dup1\n      0x40\n      add\n      0x40\n      mstore\n      dup1\n      0x03\n      dup2\n      mstore\n      0x20\n      add\n      0x6274630000000000000000000000000000000000000000000000000000000000\n      dup2\n      mstore\n      pop\n      swap1\n      pop\n        /* \"contracts/Test.sol\":189:206  bytes memory bts2 */\n      0x00\n        /* \"contracts/Test.sol\":209:213  bts1 */\n      dup2\n        /* \"contracts/Test.sol\":189:213  bytes memory bts2 = bts1 */\n      swap1\n      pop\n        /* \"contracts/Test.sol\":224:241  string memory str */\n      0x00\n        /* \"contracts/Test.sol\":224:257  string memory str = \"hello world\" */\n      mload(0x40)\n      dup1\n      0x40\n      add\n      0x40\n      mstore\n      dup1\n      0x0b\n      dup2\n      mstore\n      0x20\n      add\n      0x68656c6c6f20776f726c64000000000000000000000000000000000000000000\n      dup2\n      mstore\n      pop\n      swap1\n      pop\n        /* \"contracts/Test.sol\":267:275  uint len */\n      0x00\n        /* \"contracts/Test.sol\":284:287  str */\n      dup2\n        /* \"contracts/Test.sol\":278:295  bytes(str).length */\n      mload\n        /* \"contracts/Test.sol\":267:295  uint len = bytes(str).length */\n      swap1\n      pop\n        /* \"contracts/Test.sol\":315:323  bytes1 b */\n      0x00\n        /* \"contracts/Test.sol\":332:335  str */\n      dup3\n        /* \"contracts/Test.sol\":337:338  0 */\n      0x00\n        /* \"contracts/Test.sol\":326:339  bytes(str)[0] */\n      dup2\n      mload\n      dup2\n      lt\n      tag_9\n      jumpi\n      tag_10\n      tag_11\n      jump\t// in\n    tag_10:\n    tag_9:\n      0x20\n      add\n      add\n      mload\n      0xf8\n      shr\n      0xf8\n      shl\n        /* \"contracts/Test.sol\":315:339  bytes1 b = bytes(str)[0] */\n      swap1\n      pop\n        /* \"contracts/Test.sol\":367:370  len */\n      dup2\n        /* \"contracts/Test.sol\":360:370  len1 = len */\n      swap7\n      pop\n        /* \"contracts/Test.sol\":384:386  b1 */\n      dup6\n        /* \"contracts/Test.sol\":380:386  b = b1 */\n      swap1\n      pop\n        /* \"contracts/Test.sol\":396:409  bts2[0] = 'e' */\n      0x6500000000000000000000000000000000000000000000000000000000000000\n        /* \"contracts/Test.sol\":396:400  bts2 */\n      dup5\n        /* \"contracts/Test.sol\":401:402  0 */\n      0x00\n        /* \"contracts/Test.sol\":396:403  bts2[0] */\n      dup2\n      mload\n      dup2\n      lt\n      tag_12\n      jumpi\n      tag_13\n      tag_11\n      jump\t// in\n    tag_13:\n    tag_12:\n      0x20\n      add\n      add\n        /* \"contracts/Test.sol\":396:409  bts2[0] = 'e' */\n      swap1\n      not(0xffffffffffffffffffffffffffffffffffffffffffffffffffffffffffffff)\n      and\n      swap1\n      dup2\n      0x00\n      byte\n      swap1\n      mstore8\n      pop\n        /* \"contracts/Test.sol\":143:500  {... */\n      pop\n      pop\n      pop\n      pop\n      pop\n        /* \"contracts/Test.sol\":87:500  function test() pure public returns(uint len1,bytes1 b1){... */\n      swap1\n      swap2\n      jump\t// out\n        /* \"#utility.yul\":7:84   */\n    tag_14:\n        /* \"#utility.yul\":44:51   */\n      0x00\n        /* \"#utility.yul\":73:78   */\n      dup2\n        /* \"#utility.yul\":62:78   */\n      swap1\n      pop\n        /* \"#utility.yul\":7:84   */\n      swap2\n      swap1\n      pop\n      jump\t// out\n        /* \"#utility.yul\":90:208   */\n    tag_15:\n        /* \"#utility.yul\":177:201   */\n      tag_21\n        /* \"#utility.yul\":195:200   */\n      dup2\n        /* \"#utility.yul\":177:201   */\n      tag_14\n      jump\t// in\n    tag_21:\n        /* \"#utility.yul\":172:175   */\n      dup3\n        /* \"#utility.yul\":165:202   */\n      mstore\n        /* \"#utility.yul\":90:208   */\n      pop\n      pop\n      jump\t// out\n        /* \"#utility.yul\":214:363   */\n    tag_16:\n        /* \"#utility.yul\":250:257   */\n      0x00\n        /* \"#utility.yul\":290:356   */\n      0xff00000000000000000000000000000000000000000000000000000000000000\n        /* \"#utility.yul\":283:288   */\n      dup3\n        /* \"#utility.yul\":279:357   */\n      and\n        /* \"#utility.yul\":268:357   */\n      swap1\n      pop\n        /* \"#utility.yul\":214:363   */\n      swap2\n      swap1\n      pop\n      jump\t// out\n        /* \"#utility.yul\":369:484   */\n    tag_17:\n        /* \"#utility.yul\":454:477   */\n      tag_24\n        /* \"#utility.yul\":471:476   */\n      dup2\n        /* \"#utility.yul\":454:477   */\n      tag_16\n      jump\t// in\n    tag_24:\n        /* \"#utility.yul\":449:452   */\n      dup3\n        /* \"#utility.yul\":442:478   */\n      mstore\n        /* \"#utility.yul\":369:484   */\n      pop\n      pop\n      jump\t// out\n        /* \"#utility.yul\":490:818   */\n    tag_7:\n        /* \"#utility.yul\":609:613   */\n      0x00\n        /* \"#utility.yul\":647:649   */\n      0x40\n        /* \"#utility.yul\":636:645   */\n      dup3\n        /* \"#utility.yul\":632:650   */\n      add\n        /* \"#utility.yul\":624:650   */\n      swap1\n      pop\n        /* \"#utility.yul\":660:731   */\n      tag_26\n        /* \"#utility.yul\":728:729   */\n      0x00\n        /* \"#utility.yul\":717:726   */\n      dup4\n        /* \"#utility.yul\":713:730   */\n      add\n        /* \"#utility.yul\":704:710   */\n      dup6\n        /* \"#utility.yul\":660:731   */\n      tag_15\n      jump\t// in\n    tag_26:\n        /* \"#utility.yul\":741:811   */\n      tag_27\n        /* \"#utility.yul\":807:809   */\n      0x20\n        /* \"#utility.yul\":796:805   */\n      dup4\n        /* \"#utility.yul\":792:810   */\n      add\n        /* \"#utility.yul\":783:789   */\n      dup5\n        /* \"#utility.yul\":741:811   */\n      tag_17\n      jump\t// in\n    tag_27:\n        /* \"#utility.yul\":490:818   */\n      swap4\n      swap3\n      pop\n      pop\n      pop\n      jump\t// out\n        /* \"#utility.yul\":824:1004   */\n    tag_11:\n        /* \"#utility.yul\":872:949   */\n      0x4e487b7100000000000000000000000000000000000000000000000000000000\n        /* \"#utility.yul\":869:870   */\n      0x00\n        /* \"#utility.yul\":862:950   */\n      mstore\n        /* \"#utility.yul\":969:973   */\n      0x32\n        /* \"#utility.yul\":966:967   */\n      0x04\n        /* \"#utility.yul\":959:974   */\n      mstore\n        /* \"#utility.yul\":993:997   */\n      0x24\n        /* \"#utility.yul\":990:991   */\n      0x00\n        /* \"#utility.yul\":983:998   */\n      revert\n\n    auxdata: 0xa26469706673582212207ffb42cce9d3a1eea0e4a5a761b73773b87bbddfb6e644255961f53731572d1164736f6c634300081a0033\n}\n",
				"bytecode": {
					"linkReferences": {},
					"object": "6080604052348015600e575f80fd5b506102378061001c5f395ff3fe608060405234801561000f575f80fd5b5060043610610029575f3560e01c8063f8a8fd6d1461002d575b5f80fd5b61003561004c565b6040516100439291906101ad565b60405180910390f35b5f805f6040518060400160405280600381526020017f627463000000000000000000000000000000000000000000000000000000000081525090505f8190505f6040518060400160405280600b81526020017f68656c6c6f20776f726c6400000000000000000000000000000000000000000081525090505f815190505f825f815181106100dd576100dc6101d4565b5b602001015160f81c60f81b90508196508590507f6500000000000000000000000000000000000000000000000000000000000000845f81518110610124576101236101d4565b5b60200101907effffffffffffffffffffffffffffffffffffffffffffffffffffffffffffff191690815f1a90535050505050509091565b5f819050919050565b61016d8161015b565b82525050565b5f7fff0000000000000000000000000000000000000000000000000000000000000082169050919050565b6101a781610173565b82525050565b5f6040820190506101c05f830185610164565b6101cd602083018461019e565b9392505050565b7f4e487b71000000000000000000000000000000000000000000000000000000005f52603260045260245ffdfea26469706673582212207ffb42cce9d3a1eea0e4a5a761b73773b87bbddfb6e644255961f53731572d1164736f6c634300081a0033",
					"opcodes": "PUSH1 0x80 PUSH1 0x40 MSTORE CALLVALUE DUP1 ISZERO PUSH1 0xE JUMPI PUSH0 DUP1 REVERT JUMPDEST POP PUSH2 0x237 DUP1 PUSH2 0x1C PUSH0 CODECOPY PUSH0 RETURN INVALID PUSH1 0x80 PUSH1 0x40 MSTORE CALLVALUE DUP1 ISZERO PUSH2 0xF JUMPI PUSH0 DUP1 REVERT JUMPDEST POP PUSH1 0x4 CALLDATASIZE LT PUSH2 0x29 JUMPI PUSH0 CALLDATALOAD PUSH1 0xE0 SHR DUP1 PUSH4 0xF8A8FD6D EQ PUSH2 0x2D JUMPI JUMPDEST PUSH0 DUP1 REVERT JUMPDEST PUSH2 0x35 PUSH2 0x4C JUMP JUMPDEST PUSH1 0x40 MLOAD PUSH2 0x43 SWAP3 SWAP2 SWAP1 PUSH2 0x1AD JUMP JUMPDEST PUSH1 0x40 MLOAD DUP1 SWAP2 SUB SWAP1 RETURN JUMPDEST PUSH0 DUP1 PUSH0 PUSH1 0x40 MLOAD DUP1 PUSH1 0x40 ADD PUSH1 0x40 MSTORE DUP1 PUSH1 0x3 DUP2 MSTORE PUSH1 0x20 ADD PUSH32 0x6274630000000000000000000000000000000000000000000000000000000000 DUP2 MSTORE POP SWAP1 POP PUSH0 DUP2 SWAP1 POP PUSH0 PUSH1 0x40 MLOAD DUP1 PUSH1 0x40 ADD PUSH1 0x40 MSTORE DUP1 PUSH1 0xB DUP2 MSTORE PUSH1 0x20 ADD PUSH32 0x68656C6C6F20776F726C64000000000000000000000000000000000000000000 DUP2 MSTORE POP SWAP1 POP PUSH0 DUP2 MLOAD SWAP1 POP PUSH0 DUP3 PUSH0 DUP2 MLOAD DUP2 LT PUSH2 0xDD JUMPI PUSH2 0xDC PUSH2 0x1D4 JUMP JUMPDEST JUMPDEST PUSH1 0x20 ADD ADD MLOAD PUSH1 0xF8 SHR PUSH1 0xF8 SHL SWAP1 POP DUP2 SWAP7 POP DUP6 SWAP1 POP PUSH32 0x6500000000000000000000000000000000000000000000000000000000000000 DUP5 PUSH0 DUP2 MLOAD DUP2 LT PUSH2 0x124 JUMPI PUSH2 0x123 PUSH2 0x1D4 JUMP JUMPDEST JUMPDEST PUSH1 0x20 ADD ADD SWAP1 PUSH31 0xFFFFFFFFFFFFFFFFFFFFFFFFFFFFFFFFFFFFFFFFFFFFFFFFFFFFFFFFFFFFFF NOT AND SWAP1 DUP2 PUSH0 BYTE SWAP1 MSTORE8 POP POP POP POP POP POP SWAP1 SWAP2 JUMP JUMPDEST PUSH0 DUP2 SWAP1 POP SWAP2 SWAP1 POP JUMP JUMPDEST PUSH2 0x16D DUP2 PUSH2 0x15B JUMP JUMPDEST DUP3 MSTORE POP POP JUMP JUMPDEST PUSH0 PUSH32 0xFF00000000000000000000000000000000000000000000000000000000000000 DUP3 AND SWAP1 POP SWAP2 SWAP1 POP JUMP JUMPDEST PUSH2 0x1A7 DUP2 PUSH2 0x173 JUMP JUMPDEST DUP3 MSTORE POP POP JUMP JUMPDEST PUSH0 PUSH1 0x40 DUP3 ADD SWAP1 POP PUSH2 0x1C0 PUSH0 DUP4 ADD DUP6 PUSH2 0x164 JUMP JUMPDEST PUSH2 0x1CD PUSH1 0x20 DUP4 ADD DUP5 PUSH2 0x19E JUMP JUMPDEST SWAP4 SWAP3 POP POP POP JUMP JUMPDEST PUSH32 0x4E487B7100000000000000000000000000000000000000000000000000000000 PUSH0 MSTORE PUSH1 0x32 PUSH1 0x4 MSTORE PUSH1 0x24 PUSH0 REVERT INVALID LOG2 PUSH5 0x6970667358 0x22 SLT KECCAK256 PUSH32 0xFB42CCE9D3A1EEA0E4A5A761B73773B87BBDDFB6E644255961F53731572D1164 PUSH20 0x6F6C634300081A00330000000000000000000000 "
				},
				"gasEstimates": {
					"creation": {
						"codeDepositCost": "113400",
						"executionCost": "157",
						"totalCost": "113557"
					},
					"external": {
						"test()": "infinite"
					}
				},
				"methodIdentifiers": {
					"test()": "f8a8fd6d"
				}
			},
			"storageLayout": {
				"storage": [],
				"types": null
			},
			"userdoc": {
				"kind": "user",
				"methods": {},
				"version": 1
			}
		}
	}
}