{
	"contracts/_7Wei.sol": {
		"Wei": {
			"abi": [
				{
					"inputs": [],
					"name": "is1gw",
					"outputs": [
						{
							"internalType": "bool",
							"name": "",
							"type": "bool"
						}
					],
					"stateMutability": "view",
					"type": "function"
				},
				{
					"inputs": [],
					"name": "is1th",
					"outputs": [
						{
							"internalType": "bool",
							"name": "",
							"type": "bool"
						}
					],
					"stateMutability": "view",
					"type": "function"
				},
				{
					"inputs": [],
					"name": "is1w",
					"outputs": [
						{
							"internalType": "bool",
							"name": "",
							"type": "bool"
						}
					],
					"stateMutability": "view",
					"type": "function"
				}
			],
			"devdoc": {
				"kind": "dev",
				"methods": {},
				"version": 1
			},
			"evm": {
				"assembly": "    /* \"contracts/_7Wei.sol\":58:267  contract Wei {... */\n  mstore(0x40, 0x80)\n    /* \"contracts/_7Wei.sol\":91:96  1 wei */\n  0x01\n    /* \"contracts/_7Wei.sol\":77:96  uint256 _1w = 1 wei */\n  0x00\n  sstore\n    /* \"contracts/_7Wei.sol\":118:124  1 gwei */\n  0x3b9aca00\n    /* \"contracts/_7Wei.sol\":103:124  uint256 _1gw = 1 gwei */\n  0x01\n  sstore\n    /* \"contracts/_7Wei.sol\":146:153  1 ether */\n  0x0de0b6b3a7640000\n    /* \"contracts/_7Wei.sol\":131:153  uint256 _1ew = 1 ether */\n  0x02\n  sstore\n    /* \"contracts/_7Wei.sol\":186:187  1 */\n  0x01\n    /* \"contracts/_7Wei.sol\":179:182  _1w */\n  sload(0x00)\n    /* \"contracts/_7Wei.sol\":179:187  _1w == 1 */\n  eq\n    /* \"contracts/_7Wei.sol\":160:187  bool public is1w = _1w == 1 */\n  0x03\n  exp(0x0100, 0x00)\n  dup2\n  sload\n  dup2\n  0xff\n  mul\n  not\n  and\n  swap1\n  dup4\n  iszero\n  iszero\n  mul\n  or\n  swap1\n  sstore\n  pop\n    /* \"contracts/_7Wei.sol\":222:225  1e9 */\n  0x3b9aca00\n    /* \"contracts/_7Wei.sol\":214:218  _1gw */\n  sload(0x01)\n    /* \"contracts/_7Wei.sol\":214:225  _1gw == 1e9 */\n  eq\n    /* \"contracts/_7Wei.sol\":194:225  bool public is1gw = _1gw == 1e9 */\n  0x03\n  exp(0x0100, 0x01)\n  dup2\n  sload\n  dup2\n  0xff\n  mul\n  not\n  and\n  swap1\n  dup4\n  iszero\n  iszero\n  mul\n  or\n  swap1\n  sstore\n  pop\n    /* \"contracts/_7Wei.sol\":260:264  1e18 */\n  0x0de0b6b3a7640000\n    /* \"contracts/_7Wei.sol\":252:256  _1ew */\n  sload(0x02)\n    /* \"contracts/_7Wei.sol\":252:264  _1ew == 1e18 */\n  eq\n    /* \"contracts/_7Wei.sol\":232:264  bool public is1th = _1ew == 1e18 */\n  0x03\n  exp(0x0100, 0x02)\n  dup2\n  sload\n  dup2\n  0xff\n  mul\n  not\n  and\n  swap1\n  dup4\n  iszero\n  iszero\n  mul\n  or\n  swap1\n  sstore\n  pop\n    /* \"contracts/_7Wei.sol\":58:267  contract Wei {... */\n  callvalue\n  dup1\n  iszero\n  tag_1\n  jumpi\n  0x00\n  dup1\n  revert\ntag_1:\n  pop\n  dataSize(sub_0)\n  dup1\n  dataOffset(sub_0)\n  0x00\n  codecopy\n  0x00\n  return\nstop\n\nsub_0: assembly {\n        /* \"contracts/_7Wei.sol\":58:267  contract Wei {... */\n      mstore(0x40, 0x80)\n      callvalue\n      dup1\n      iszero\n      tag_1\n      jumpi\n      0x00\n      dup1\n      revert\n    tag_1:\n      pop\n      jumpi(tag_2, lt(calldatasize, 0x04))\n      shr(0xe0, calldataload(0x00))\n      dup1\n      0x86ab0a5a\n      eq\n      tag_3\n      jumpi\n      dup1\n      0x8e3f4d72\n      eq\n      tag_4\n      jumpi\n      dup1\n      0x9dc89e9f\n      eq\n      tag_5\n      jumpi\n    tag_2:\n      0x00\n      dup1\n      revert\n        /* \"contracts/_7Wei.sol\":160:187  bool public is1w = _1w == 1 */\n    tag_3:\n      tag_6\n      tag_7\n      jump\t// in\n    tag_6:\n      mload(0x40)\n      tag_8\n      swap2\n      swap1\n      tag_9\n      jump\t// in\n    tag_8:\n      mload(0x40)\n      dup1\n      swap2\n      sub\n      swap1\n      return\n        /* \"contracts/_7Wei.sol\":232:264  bool public is1th = _1ew == 1e18 */\n    tag_4:\n      tag_10\n      tag_11\n      jump\t// in\n    tag_10:\n      mload(0x40)\n      tag_12\n      swap2\n      swap1\n      tag_9\n      jump\t// in\n    tag_12:\n      mload(0x40)\n      dup1\n      swap2\n      sub\n      swap1\n      return\n        /* \"contracts/_7Wei.sol\":194:225  bool public is1gw = _1gw == 1e9 */\n    tag_5:\n      tag_13\n      tag_14\n      jump\t// in\n    tag_13:\n      mload(0x40)\n      tag_15\n      swap2\n      swap1\n      tag_9\n      jump\t// in\n    tag_15:\n      mload(0x40)\n      dup1\n      swap2\n      sub\n      swap1\n      return\n        /* \"contracts/_7Wei.sol\":160:187  bool public is1w = _1w == 1 */\n    tag_7:\n      0x03\n      0x00\n      swap1\n      sload\n      swap1\n      0x0100\n      exp\n      swap1\n      div\n      0xff\n      and\n      dup2\n      jump\t// out\n        /* \"contracts/_7Wei.sol\":232:264  bool public is1th = _1ew == 1e18 */\n    tag_11:\n      0x03\n      0x02\n      swap1\n      sload\n      swap1\n      0x0100\n      exp\n      swap1\n      div\n      0xff\n      and\n      dup2\n      jump\t// out\n        /* \"contracts/_7Wei.sol\":194:225  bool public is1gw = _1gw == 1e9 */\n    tag_14:\n      0x03\n      0x01\n      swap1\n      sload\n      swap1\n      0x0100\n      exp\n      swap1\n      div\n      0xff\n      and\n      dup2\n      jump\t// out\n        /* \"#utility.yul\":7:97   */\n    tag_16:\n        /* \"#utility.yul\":41:48   */\n      0x00\n        /* \"#utility.yul\":84:89   */\n      dup2\n        /* \"#utility.yul\":77:90   */\n      iszero\n        /* \"#utility.yul\":70:91   */\n      iszero\n        /* \"#utility.yul\":59:91   */\n      swap1\n      pop\n        /* \"#utility.yul\":7:97   */\n      swap2\n      swap1\n      pop\n      jump\t// out\n        /* \"#utility.yul\":103:212   */\n    tag_17:\n        /* \"#utility.yul\":184:205   */\n      tag_21\n        /* \"#utility.yul\":199:204   */\n      dup2\n        /* \"#utility.yul\":184:205   */\n      tag_16\n      jump\t// in\n    tag_21:\n        /* \"#utility.yul\":179:182   */\n      dup3\n        /* \"#utility.yul\":172:206   */\n      mstore\n        /* \"#utility.yul\":103:212   */\n      pop\n      pop\n      jump\t// out\n        /* \"#utility.yul\":218:428   */\n    tag_9:\n        /* \"#utility.yul\":305:309   */\n      0x00\n        /* \"#utility.yul\":343:345   */\n      0x20\n        /* \"#utility.yul\":332:341   */\n      dup3\n        /* \"#utility.yul\":328:346   */\n      add\n        /* \"#utility.yul\":320:346   */\n      swap1\n      pop\n        /* \"#utility.yul\":356:421   */\n      tag_23\n        /* \"#utility.yul\":418:419   */\n      0x00\n        /* \"#utility.yul\":407:416   */\n      dup4\n        /* \"#utility.yul\":403:420   */\n      add\n        /* \"#utility.yul\":394:400   */\n      dup5\n        /* \"#utility.yul\":356:421   */\n      tag_17\n      jump\t// in\n    tag_23:\n        /* \"#utility.yul\":218:428   */\n      swap3\n      swap2\n      pop\n      pop\n      jump\t// out\n\n    auxdata: 0xa26469706673582212202816effdedf8dd08caf8719d76494578d21198a15ae50e070aa11a8e6899607864736f6c634300081a0033\n}\n",
				"bytecode": {
					"linkReferences": {},
					"object": "608060405260015f55633b9aca00600155670de0b6b3a764000060025560015f541460035f6101000a81548160ff021916908315150217905550633b9aca0060015414600360016101000a81548160ff021916908315150217905550670de0b6b3a764000060025414600360026101000a81548160ff021916908315150217905550348015608b575f80fd5b50610129806100995f395ff3fe6080604052348015600e575f80fd5b5060043610603a575f3560e01c806386ab0a5a14603e5780638e3f4d721460585780639dc89e9f146072575b5f80fd5b6044608c565b604051604f919060dc565b60405180910390f35b605e609e565b6040516069919060dc565b60405180910390f35b607860b1565b6040516083919060dc565b60405180910390f35b60035f9054906101000a900460ff1681565b600360029054906101000a900460ff1681565b600360019054906101000a900460ff1681565b5f8115159050919050565b60d68160c4565b82525050565b5f60208201905060ed5f83018460cf565b9291505056fea26469706673582212202816effdedf8dd08caf8719d76494578d21198a15ae50e070aa11a8e6899607864736f6c634300081a0033",
					"opcodes": "PUSH1 0x80 PUSH1 0x40 MSTORE PUSH1 0x1 PUSH0 SSTORE PUSH4 0x3B9ACA00 PUSH1 0x1 SSTORE PUSH8 0xDE0B6B3A7640000 PUSH1 0x2 SSTORE PUSH1 0x1 PUSH0 SLOAD EQ PUSH1 0x3 PUSH0 PUSH2 0x100 EXP DUP2 SLOAD DUP2 PUSH1 0xFF MUL NOT AND SWAP1 DUP4 ISZERO ISZERO MUL OR SWAP1 SSTORE POP PUSH4 0x3B9ACA00 PUSH1 0x1 SLOAD EQ PUSH1 0x3 PUSH1 0x1 PUSH2 0x100 EXP DUP2 SLOAD DUP2 PUSH1 0xFF MUL NOT AND SWAP1 DUP4 ISZERO ISZERO MUL OR SWAP1 SSTORE POP PUSH8 0xDE0B6B3A7640000 PUSH1 0x2 SLOAD EQ PUSH1 0x3 PUSH1 0x2 PUSH2 0x100 EXP DUP2 SLOAD DUP2 PUSH1 0xFF MUL NOT AND SWAP1 DUP4 ISZERO ISZERO MUL OR SWAP1 SSTORE POP CALLVALUE DUP1 ISZERO PUSH1 0x8B JUMPI PUSH0 DUP1 REVERT JUMPDEST POP PUSH2 0x129 DUP1 PUSH2 0x99 PUSH0 CODECOPY PUSH0 RETURN INVALID PUSH1 0x80 PUSH1 0x40 MSTORE CALLVALUE DUP1 ISZERO PUSH1 0xE JUMPI PUSH0 DUP1 REVERT JUMPDEST POP PUSH1 0x4 CALLDATASIZE LT PUSH1 0x3A JUMPI PUSH0 CALLDATALOAD PUSH1 0xE0 SHR DUP1 PUSH4 0x86AB0A5A EQ PUSH1 0x3E JUMPI DUP1 PUSH4 0x8E3F4D72 EQ PUSH1 0x58 JUMPI DUP1 PUSH4 0x9DC89E9F EQ PUSH1 0x72 JUMPI JUMPDEST PUSH0 DUP1 REVERT JUMPDEST PUSH1 0x44 PUSH1 0x8C JUMP JUMPDEST PUSH1 0x40 MLOAD PUSH1 0x4F SWAP2 SWAP1 PUSH1 0xDC JUMP JUMPDEST PUSH1 0x40 MLOAD DUP1 SWAP2 SUB SWAP1 RETURN JUMPDEST PUSH1 0x5E PUSH1 0x9E JUMP JUMPDEST PUSH1 0x40 MLOAD PUSH1 0x69 SWAP2 SWAP1 PUSH1 0xDC JUMP JUMPDEST PUSH1 0x40 MLOAD DUP1 SWAP2 SUB SWAP1 RETURN JUMPDEST PUSH1 0x78 PUSH1 0xB1 JUMP JUMPDEST PUSH1 0x40 MLOAD PUSH1 0x83 SWAP2 SWAP1 PUSH1 0xDC JUMP JUMPDEST PUSH1 0x40 MLOAD DUP1 SWAP2 SUB SWAP1 RETURN JUMPDEST PUSH1 0x3 PUSH0 SWAP1 SLOAD SWAP1 PUSH2 0x100 EXP SWAP1 DIV PUSH1 0xFF AND DUP2 JUMP JUMPDEST PUSH1 0x3 PUSH1 0x2 SWAP1 SLOAD SWAP1 PUSH2 0x100 EXP SWAP1 DIV PUSH1 0xFF AND DUP2 JUMP JUMPDEST PUSH1 0x3 PUSH1 0x1 SWAP1 SLOAD SWAP1 PUSH2 0x100 EXP SWAP1 DIV PUSH1 0xFF AND DUP2 JUMP JUMPDEST PUSH0 DUP2 ISZERO ISZERO SWAP1 POP SWAP2 SWAP1 POP JUMP JUMPDEST PUSH1 0xD6 DUP2 PUSH1 0xC4 JUMP JUMPDEST DUP3 MSTORE POP POP JUMP JUMPDEST PUSH0 PUSH1 0x20 DUP3 ADD SWAP1 POP PUSH1 0xED PUSH0 DUP4 ADD DUP5 PUSH1 0xCF JUMP JUMPDEST SWAP3 SWAP2 POP POP JUMP INVALID LOG2 PUSH5 0x6970667358 0x22 SLT KECCAK256 0x28 AND 0xEF REVERT 0xED 0xF8 0xDD ADDMOD 0xCA 0xF8 PUSH18 0x9D76494578D21198A15AE50E070AA11A8E68 SWAP10 PUSH1 0x78 PUSH5 0x736F6C6343 STOP ADDMOD BYTE STOP CALLER "
				},
				"gasEstimates": {
					"creation": {
						"codeDepositCost": "59400",
						"executionCost": "145643",
						"totalCost": "205043"
					},
					"external": {
						"is1gw()": "2539",
						"is1th()": "2517",
						"is1w()": "2444"
					}
				},
				"methodIdentifiers": {
					"is1gw()": "9dc89e9f",
					"is1th()": "8e3f4d72",
					"is1w()": "86ab0a5a"
				}
			},
			"storageLayout": {
				"storage": [
					{
						"astId": 4,
						"contract": "contracts/_7Wei.sol:Wei",
						"label": "_1w",
						"offset": 0,
						"slot": "0",
						"type": "t_uint256"
					},
					{
						"astId": 7,
						"contract": "contracts/_7Wei.sol:Wei",
						"label": "_1gw",
						"offset": 0,
						"slot": "1",
						"type": "t_uint256"
					},
					{
						"astId": 10,
						"contract": "contracts/_7Wei.sol:Wei",
						"label": "_1ew",
						"offset": 0,
						"slot": "2",
						"type": "t_uint256"
					},
					{
						"astId": 15,
						"contract": "contracts/_7Wei.sol:Wei",
						"label": "is1w",
						"offset": 0,
						"slot": "3",
						"type": "t_bool"
					},
					{
						"astId": 20,
						"contract": "contracts/_7Wei.sol:Wei",
						"label": "is1gw",
						"offset": 1,
						"slot": "3",
						"type": "t_bool"
					},
					{
						"astId": 25,
						"contract": "contracts/_7Wei.sol:Wei",
						"label": "is1th",
						"offset": 2,
						"slot": "3",
						"type": "t_bool"
					}
				],
				"types": {
					"t_bool": {
						"encoding": "inplace",
						"label": "bool",
						"numberOfBytes": "1"
					},
					"t_uint256": {
						"encoding": "inplace",
						"label": "uint256",
						"numberOfBytes": "32"
					}
				}
			},
			"userdoc": {
				"kind": "user",
				"methods": {},
				"version": 1
			}
		}
	}
}