{
	"contracts/_15ArrayReplaceFromEnd.sol": {
		"ArrayReplaceFromEnd": {
			"abi": [
				{
					"inputs": [
						{
							"internalType": "uint256",
							"name": "",
							"type": "uint256"
						}
					],
					"name": "arr",
					"outputs": [
						{
							"internalType": "uint256",
							"name": "",
							"type": "uint256"
						}
					],
					"stateMutability": "view",
					"type": "function"
				},
				{
					"inputs": [
						{
							"internalType": "uint256",
							"name": "",
							"type": "uint256"
						}
					],
					"name": "arr2",
					"outputs": [
						{
							"internalType": "uint256",
							"name": "",
							"type": "uint256"
						}
					],
					"stateMutability": "view",
					"type": "function"
				},
				{
					"inputs": [
						{
							"internalType": "uint256",
							"name": "idx",
							"type": "uint256"
						}
					],
					"name": "remove",
					"outputs": [],
					"stateMutability": "nonpayable",
					"type": "function"
				},
				{
					"inputs": [],
					"name": "test",
					"outputs": [],
					"stateMutability": "nonpayable",
					"type": "function"
				}
			],
			"devdoc": {
				"kind": "dev",
				"methods": {},
				"version": 1
			},
			"evm": {
				"assembly": "    /* \"contracts/_15ArrayReplaceFromEnd.sol\":58:692  contract ArrayReplaceFromEnd{... */\n  mstore(0x40, 0x80)\n  callvalue\n  dup1\n  iszero\n  tag_1\n  jumpi\n  0x00\n  dup1\n  revert\ntag_1:\n  pop\n  dataSize(sub_0)\n  dup1\n  dataOffset(sub_0)\n  0x00\n  codecopy\n  0x00\n  return\nstop\n\nsub_0: assembly {\n        /* \"contracts/_15ArrayReplaceFromEnd.sol\":58:692  contract ArrayReplaceFromEnd{... */\n      mstore(0x40, 0x80)\n      callvalue\n      dup1\n      iszero\n      tag_1\n      jumpi\n      0x00\n      dup1\n      revert\n    tag_1:\n      pop\n      jumpi(tag_2, lt(calldatasize, 0x04))\n      shr(0xe0, calldataload(0x00))\n      dup1\n      0x4cc82215\n      eq\n      tag_3\n      jumpi\n      dup1\n      0x71e5ee5f\n      eq\n      tag_4\n      jumpi\n      dup1\n      0xedf0099b\n      eq\n      tag_5\n      jumpi\n      dup1\n      0xf8a8fd6d\n      eq\n      tag_6\n      jumpi\n    tag_2:\n      0x00\n      dup1\n      revert\n        /* \"contracts/_15ArrayReplaceFromEnd.sol\":150:310  function remove(uint idx) public {... */\n    tag_3:\n      tag_7\n      0x04\n      dup1\n      calldatasize\n      sub\n      dup2\n      add\n      swap1\n      tag_8\n      swap2\n      swap1\n      tag_9\n      jump\t// in\n    tag_8:\n      tag_10\n      jump\t// in\n    tag_7:\n      stop\n        /* \"contracts/_15ArrayReplaceFromEnd.sol\":93:113  uint256[] public arr */\n    tag_4:\n      tag_11\n      0x04\n      dup1\n      calldatasize\n      sub\n      dup2\n      add\n      swap1\n      tag_12\n      swap2\n      swap1\n      tag_9\n      jump\t// in\n    tag_12:\n      tag_13\n      jump\t// in\n    tag_11:\n      mload(0x40)\n      tag_14\n      swap2\n      swap1\n      tag_15\n      jump\t// in\n    tag_14:\n      mload(0x40)\n      dup1\n      swap2\n      sub\n      swap1\n      return\n        /* \"contracts/_15ArrayReplaceFromEnd.sol\":120:142  uint256[4] public arr2 */\n    tag_5:\n      tag_16\n      0x04\n      dup1\n      calldatasize\n      sub\n      dup2\n      add\n      swap1\n      tag_17\n      swap2\n      swap1\n      tag_9\n      jump\t// in\n    tag_17:\n      tag_18\n      jump\t// in\n    tag_16:\n      mload(0x40)\n      tag_19\n      swap2\n      swap1\n      tag_15\n      jump\t// in\n    tag_19:\n      mload(0x40)\n      dup1\n      swap2\n      sub\n      swap1\n      return\n        /* \"contracts/_15ArrayReplaceFromEnd.sol\":317:687  function test() public {... */\n    tag_6:\n      tag_20\n      tag_21\n      jump\t// in\n    tag_20:\n      stop\n        /* \"contracts/_15ArrayReplaceFromEnd.sol\":150:310  function remove(uint idx) public {... */\n    tag_10:\n        /* \"contracts/_15ArrayReplaceFromEnd.sol\":205:208  arr */\n      0x00\n        /* \"contracts/_15ArrayReplaceFromEnd.sol\":205:215  arr.length */\n      dup1\n      sload\n      swap1\n      pop\n        /* \"contracts/_15ArrayReplaceFromEnd.sol\":201:204  idx */\n      dup2\n        /* \"contracts/_15ArrayReplaceFromEnd.sol\":201:215  idx<arr.length */\n      lt\n        /* \"contracts/_15ArrayReplaceFromEnd.sol\":193:246  require(idx<arr.length,\"cannot allow idx >= arr len\") */\n      tag_23\n      jumpi\n      mload(0x40)\n      0x08c379a000000000000000000000000000000000000000000000000000000000\n      dup2\n      mstore\n      0x04\n      add\n      tag_24\n      swap1\n      tag_25\n      jump\t// in\n    tag_24:\n      mload(0x40)\n      dup1\n      swap2\n      sub\n      swap1\n      revert\n    tag_23:\n        /* \"contracts/_15ArrayReplaceFromEnd.sol\":267:270  arr */\n      0x00\n        /* \"contracts/_15ArrayReplaceFromEnd.sol\":282:283  1 */\n      0x01\n        /* \"contracts/_15ArrayReplaceFromEnd.sol\":271:274  arr */\n      0x00\n        /* \"contracts/_15ArrayReplaceFromEnd.sol\":271:281  arr.length */\n      dup1\n      sload\n      swap1\n      pop\n        /* \"contracts/_15ArrayReplaceFromEnd.sol\":271:283  arr.length-1 */\n      tag_26\n      swap2\n      swap1\n      tag_27\n      jump\t// in\n    tag_26:\n        /* \"contracts/_15ArrayReplaceFromEnd.sol\":267:284  arr[arr.length-1] */\n      dup2\n      sload\n      dup2\n      lt\n      tag_28\n      jumpi\n      tag_29\n      tag_30\n      jump\t// in\n    tag_29:\n    tag_28:\n      swap1\n      0x00\n      mstore\n      keccak256(0x00, 0x20)\n      add\n      sload\n        /* \"contracts/_15ArrayReplaceFromEnd.sol\":256:259  arr */\n      0x00\n        /* \"contracts/_15ArrayReplaceFromEnd.sol\":260:263  idx */\n      dup3\n        /* \"contracts/_15ArrayReplaceFromEnd.sol\":256:264  arr[idx] */\n      dup2\n      sload\n      dup2\n      lt\n      tag_32\n      jumpi\n      tag_33\n      tag_30\n      jump\t// in\n    tag_33:\n    tag_32:\n      swap1\n      0x00\n      mstore\n      keccak256(0x00, 0x20)\n      add\n        /* \"contracts/_15ArrayReplaceFromEnd.sol\":256:284  arr[idx] = arr[arr.length-1] */\n      dup2\n      swap1\n      sstore\n      pop\n        /* \"contracts/_15ArrayReplaceFromEnd.sol\":294:297  arr */\n      0x00\n        /* \"contracts/_15ArrayReplaceFromEnd.sol\":294:303  arr.pop() */\n      dup1\n      sload\n      dup1\n      tag_35\n      jumpi\n      tag_36\n      tag_37\n      jump\t// in\n    tag_36:\n    tag_35:\n      0x01\n      swap1\n      sub\n      dup2\n      dup2\n      swap1\n      0x00\n      mstore\n      keccak256(0x00, 0x20)\n      add\n      0x00\n      swap1\n      sstore\n      swap1\n      sstore\n        /* \"contracts/_15ArrayReplaceFromEnd.sol\":150:310  function remove(uint idx) public {... */\n      pop\n      jump\t// out\n        /* \"contracts/_15ArrayReplaceFromEnd.sol\":93:113  uint256[] public arr */\n    tag_13:\n      0x00\n      dup2\n      dup2\n      sload\n      dup2\n      lt\n      tag_39\n      jumpi\n      0x00\n      dup1\n      revert\n    tag_39:\n      swap1\n      0x00\n      mstore\n      keccak256(0x00, 0x20)\n      add\n      0x00\n      swap2\n      pop\n      swap1\n      pop\n      sload\n      dup2\n      jump\t// out\n        /* \"contracts/_15ArrayReplaceFromEnd.sol\":120:142  uint256[4] public arr2 */\n    tag_18:\n      0x01\n      dup2\n      0x04\n      dup2\n      lt\n      tag_41\n      jumpi\n      0x00\n      dup1\n      revert\n    tag_41:\n      add\n      0x00\n      swap2\n      pop\n      swap1\n      pop\n      sload\n      dup2\n      jump\t// out\n        /* \"contracts/_15ArrayReplaceFromEnd.sol\":317:687  function test() public {... */\n    tag_21:\n        /* \"contracts/_15ArrayReplaceFromEnd.sol\":350:366  arr2 = [1,2,3,4] */\n      mload(0x40)\n      dup1\n      0x80\n      add\n      0x40\n      mstore\n      dup1\n        /* \"contracts/_15ArrayReplaceFromEnd.sol\":358:359  1 */\n      0x01\n        /* \"contracts/_15ArrayReplaceFromEnd.sol\":350:366  arr2 = [1,2,3,4] */\n      0xff\n      and\n      dup2\n      mstore\n      0x20\n      add\n        /* \"contracts/_15ArrayReplaceFromEnd.sol\":360:361  2 */\n      0x02\n        /* \"contracts/_15ArrayReplaceFromEnd.sol\":350:366  arr2 = [1,2,3,4] */\n      0xff\n      and\n      dup2\n      mstore\n      0x20\n      add\n        /* \"contracts/_15ArrayReplaceFromEnd.sol\":362:363  3 */\n      0x03\n        /* \"contracts/_15ArrayReplaceFromEnd.sol\":350:366  arr2 = [1,2,3,4] */\n      0xff\n      and\n      dup2\n      mstore\n      0x20\n      add\n        /* \"contracts/_15ArrayReplaceFromEnd.sol\":364:365  4 */\n      0x04\n        /* \"contracts/_15ArrayReplaceFromEnd.sol\":350:366  arr2 = [1,2,3,4] */\n      0xff\n      and\n      dup2\n      mstore\n      pop\n        /* \"contracts/_15ArrayReplaceFromEnd.sol\":350:354  arr2 */\n      0x01\n        /* \"contracts/_15ArrayReplaceFromEnd.sol\":350:366  arr2 = [1,2,3,4] */\n      swap1\n      0x04\n      tag_44\n      swap3\n      swap2\n      swap1\n      tag_45\n      jump\t// in\n    tag_44:\n      pop\n        /* \"contracts/_15ArrayReplaceFromEnd.sol\":382:386  arr2 */\n      0x01\n        /* \"contracts/_15ArrayReplaceFromEnd.sol\":376:379  arr */\n      0x00\n        /* \"contracts/_15ArrayReplaceFromEnd.sol\":376:386  arr = arr2 */\n      swap1\n      0x04\n      tag_46\n      swap3\n      swap2\n      swap1\n      tag_47\n      jump\t// in\n    tag_46:\n      pop\n        /* \"contracts/_15ArrayReplaceFromEnd.sol\":396:405  remove(1) */\n      tag_48\n        /* \"contracts/_15ArrayReplaceFromEnd.sol\":403:404  1 */\n      0x01\n        /* \"contracts/_15ArrayReplaceFromEnd.sol\":396:402  remove */\n      tag_10\n        /* \"contracts/_15ArrayReplaceFromEnd.sol\":396:405  remove(1) */\n      jump\t// in\n    tag_48:\n        /* \"contracts/_15ArrayReplaceFromEnd.sol\":462:463  3 */\n      0x03\n        /* \"contracts/_15ArrayReplaceFromEnd.sol\":448:451  arr */\n      0x00\n        /* \"contracts/_15ArrayReplaceFromEnd.sol\":448:458  arr.length */\n      dup1\n      sload\n      swap1\n      pop\n        /* \"contracts/_15ArrayReplaceFromEnd.sol\":448:463  arr.length == 3 */\n      eq\n        /* \"contracts/_15ArrayReplaceFromEnd.sol\":441:464  assert(arr.length == 3) */\n      tag_49\n      jumpi\n      tag_50\n      tag_51\n      jump\t// in\n    tag_50:\n    tag_49:\n        /* \"contracts/_15ArrayReplaceFromEnd.sol\":491:492  1 */\n      0x01\n        /* \"contracts/_15ArrayReplaceFromEnd.sol\":481:484  arr */\n      0x00\n        /* \"contracts/_15ArrayReplaceFromEnd.sol\":485:486  0 */\n      dup1\n        /* \"contracts/_15ArrayReplaceFromEnd.sol\":481:487  arr[0] */\n      dup2\n      sload\n      dup2\n      lt\n      tag_52\n      jumpi\n      tag_53\n      tag_30\n      jump\t// in\n    tag_53:\n    tag_52:\n      swap1\n      0x00\n      mstore\n      keccak256(0x00, 0x20)\n      add\n      sload\n        /* \"contracts/_15ArrayReplaceFromEnd.sol\":481:492  arr[0] == 1 */\n      eq\n        /* \"contracts/_15ArrayReplaceFromEnd.sol\":474:493  assert(arr[0] == 1) */\n      tag_55\n      jumpi\n      tag_56\n      tag_51\n      jump\t// in\n    tag_56:\n    tag_55:\n        /* \"contracts/_15ArrayReplaceFromEnd.sol\":520:521  4 */\n      0x04\n        /* \"contracts/_15ArrayReplaceFromEnd.sol\":510:513  arr */\n      0x00\n        /* \"contracts/_15ArrayReplaceFromEnd.sol\":514:515  1 */\n      0x01\n        /* \"contracts/_15ArrayReplaceFromEnd.sol\":510:516  arr[1] */\n      dup2\n      sload\n      dup2\n      lt\n      tag_57\n      jumpi\n      tag_58\n      tag_30\n      jump\t// in\n    tag_58:\n    tag_57:\n      swap1\n      0x00\n      mstore\n      keccak256(0x00, 0x20)\n      add\n      sload\n        /* \"contracts/_15ArrayReplaceFromEnd.sol\":510:521  arr[1] == 4 */\n      eq\n        /* \"contracts/_15ArrayReplaceFromEnd.sol\":503:522  assert(arr[1] == 4) */\n      tag_60\n      jumpi\n      tag_61\n      tag_51\n      jump\t// in\n    tag_61:\n    tag_60:\n        /* \"contracts/_15ArrayReplaceFromEnd.sol\":549:550  3 */\n      0x03\n        /* \"contracts/_15ArrayReplaceFromEnd.sol\":539:542  arr */\n      0x00\n        /* \"contracts/_15ArrayReplaceFromEnd.sol\":543:544  2 */\n      0x02\n        /* \"contracts/_15ArrayReplaceFromEnd.sol\":539:545  arr[2] */\n      dup2\n      sload\n      dup2\n      lt\n      tag_62\n      jumpi\n      tag_63\n      tag_30\n      jump\t// in\n    tag_63:\n    tag_62:\n      swap1\n      0x00\n      mstore\n      keccak256(0x00, 0x20)\n      add\n      sload\n        /* \"contracts/_15ArrayReplaceFromEnd.sol\":539:550  arr[2] == 3 */\n      eq\n        /* \"contracts/_15ArrayReplaceFromEnd.sol\":532:551  assert(arr[2] == 3) */\n      tag_65\n      jumpi\n      tag_66\n      tag_51\n      jump\t// in\n    tag_66:\n    tag_65:\n        /* \"contracts/_15ArrayReplaceFromEnd.sol\":561:570  remove(2) */\n      tag_67\n        /* \"contracts/_15ArrayReplaceFromEnd.sol\":568:569  2 */\n      0x02\n        /* \"contracts/_15ArrayReplaceFromEnd.sol\":561:567  remove */\n      tag_10\n        /* \"contracts/_15ArrayReplaceFromEnd.sol\":561:570  remove(2) */\n      jump\t// in\n    tag_67:\n        /* \"contracts/_15ArrayReplaceFromEnd.sol\":619:620  2 */\n      0x02\n        /* \"contracts/_15ArrayReplaceFromEnd.sol\":605:608  arr */\n      0x00\n        /* \"contracts/_15ArrayReplaceFromEnd.sol\":605:615  arr.length */\n      dup1\n      sload\n      swap1\n      pop\n        /* \"contracts/_15ArrayReplaceFromEnd.sol\":605:620  arr.length == 2 */\n      eq\n        /* \"contracts/_15ArrayReplaceFromEnd.sol\":598:621  assert(arr.length == 2) */\n      tag_68\n      jumpi\n      tag_69\n      tag_51\n      jump\t// in\n    tag_69:\n    tag_68:\n        /* \"contracts/_15ArrayReplaceFromEnd.sol\":648:649  1 */\n      0x01\n        /* \"contracts/_15ArrayReplaceFromEnd.sol\":638:641  arr */\n      0x00\n        /* \"contracts/_15ArrayReplaceFromEnd.sol\":642:643  0 */\n      dup1\n        /* \"contracts/_15ArrayReplaceFromEnd.sol\":638:644  arr[0] */\n      dup2\n      sload\n      dup2\n      lt\n      tag_70\n      jumpi\n      tag_71\n      tag_30\n      jump\t// in\n    tag_71:\n    tag_70:\n      swap1\n      0x00\n      mstore\n      keccak256(0x00, 0x20)\n      add\n      sload\n        /* \"contracts/_15ArrayReplaceFromEnd.sol\":638:649  arr[0] == 1 */\n      eq\n        /* \"contracts/_15ArrayReplaceFromEnd.sol\":631:650  assert(arr[0] == 1) */\n      tag_73\n      jumpi\n      tag_74\n      tag_51\n      jump\t// in\n    tag_74:\n    tag_73:\n        /* \"contracts/_15ArrayReplaceFromEnd.sol\":677:678  4 */\n      0x04\n        /* \"contracts/_15ArrayReplaceFromEnd.sol\":667:670  arr */\n      0x00\n        /* \"contracts/_15ArrayReplaceFromEnd.sol\":671:672  1 */\n      0x01\n        /* \"contracts/_15ArrayReplaceFromEnd.sol\":667:673  arr[1] */\n      dup2\n      sload\n      dup2\n      lt\n      tag_75\n      jumpi\n      tag_76\n      tag_30\n      jump\t// in\n    tag_76:\n    tag_75:\n      swap1\n      0x00\n      mstore\n      keccak256(0x00, 0x20)\n      add\n      sload\n        /* \"contracts/_15ArrayReplaceFromEnd.sol\":667:678  arr[1] == 4 */\n      eq\n        /* \"contracts/_15ArrayReplaceFromEnd.sol\":660:679  assert(arr[1] == 4) */\n      tag_78\n      jumpi\n      tag_79\n      tag_51\n      jump\t// in\n    tag_79:\n    tag_78:\n        /* \"contracts/_15ArrayReplaceFromEnd.sol\":317:687  function test() public {... */\n      jump\t// out\n    tag_45:\n      dup3\n      0x04\n      dup2\n      add\n      swap3\n      dup3\n      iszero\n      tag_80\n      jumpi\n      swap2\n      0x20\n      mul\n      dup3\n      add\n    tag_81:\n      dup3\n      dup2\n      gt\n      iszero\n      tag_82\n      jumpi\n      dup3\n      mload\n      dup3\n      swap1\n      0xff\n      and\n      swap1\n      sstore\n      swap2\n      0x20\n      add\n      swap2\n      swap1\n      0x01\n      add\n      swap1\n      jump(tag_81)\n    tag_82:\n    tag_80:\n      pop\n      swap1\n      pop\n      tag_83\n      swap2\n      swap1\n      tag_84\n      jump\t// in\n    tag_83:\n      pop\n      swap1\n      jump\t// out\n    tag_47:\n      dup3\n      dup1\n      sload\n      dup3\n      dup3\n      sstore\n      swap1\n      0x00\n      mstore\n      keccak256(0x00, 0x20)\n      swap1\n      dup2\n      add\n      swap3\n      dup3\n      iszero\n      tag_85\n      jumpi\n      swap2\n      dup3\n      add\n    tag_86:\n      dup3\n      dup2\n      gt\n      iszero\n      tag_87\n      jumpi\n      dup3\n      sload\n      dup3\n      sstore\n      swap2\n      0x01\n      add\n      swap2\n      swap1\n      0x01\n      add\n      swap1\n      jump(tag_86)\n    tag_87:\n    tag_85:\n      pop\n      swap1\n      pop\n      tag_88\n      swap2\n      swap1\n      tag_84\n      jump\t// in\n    tag_88:\n      pop\n      swap1\n      jump\t// out\n    tag_84:\n    tag_89:\n      dup1\n      dup3\n      gt\n      iszero\n      tag_90\n      jumpi\n      0x00\n      dup2\n      0x00\n      swap1\n      sstore\n      pop\n      0x01\n      add\n      jump(tag_89)\n    tag_90:\n      pop\n      swap1\n      jump\t// out\n        /* \"#utility.yul\":88:205   */\n    tag_92:\n        /* \"#utility.yul\":197:198   */\n      0x00\n        /* \"#utility.yul\":194:195   */\n      dup1\n        /* \"#utility.yul\":187:199   */\n      revert\n        /* \"#utility.yul\":334:411   */\n    tag_94:\n        /* \"#utility.yul\":371:378   */\n      0x00\n        /* \"#utility.yul\":400:405   */\n      dup2\n        /* \"#utility.yul\":389:405   */\n      swap1\n      pop\n        /* \"#utility.yul\":334:411   */\n      swap2\n      swap1\n      pop\n      jump\t// out\n        /* \"#utility.yul\":417:539   */\n    tag_95:\n        /* \"#utility.yul\":490:514   */\n      tag_108\n        /* \"#utility.yul\":508:513   */\n      dup2\n        /* \"#utility.yul\":490:514   */\n      tag_94\n      jump\t// in\n    tag_108:\n        /* \"#utility.yul\":483:488   */\n      dup2\n        /* \"#utility.yul\":480:515   */\n      eq\n        /* \"#utility.yul\":470:533   */\n      tag_109\n      jumpi\n        /* \"#utility.yul\":529:530   */\n      0x00\n        /* \"#utility.yul\":526:527   */\n      dup1\n        /* \"#utility.yul\":519:531   */\n      revert\n        /* \"#utility.yul\":470:533   */\n    tag_109:\n        /* \"#utility.yul\":417:539   */\n      pop\n      jump\t// out\n        /* \"#utility.yul\":545:684   */\n    tag_96:\n        /* \"#utility.yul\":591:596   */\n      0x00\n        /* \"#utility.yul\":629:635   */\n      dup2\n        /* \"#utility.yul\":616:636   */\n      calldataload\n        /* \"#utility.yul\":607:636   */\n      swap1\n      pop\n        /* \"#utility.yul\":645:678   */\n      tag_111\n        /* \"#utility.yul\":672:677   */\n      dup2\n        /* \"#utility.yul\":645:678   */\n      tag_95\n      jump\t// in\n    tag_111:\n        /* \"#utility.yul\":545:684   */\n      swap3\n      swap2\n      pop\n      pop\n      jump\t// out\n        /* \"#utility.yul\":690:1019   */\n    tag_9:\n        /* \"#utility.yul\":749:755   */\n      0x00\n        /* \"#utility.yul\":798:800   */\n      0x20\n        /* \"#utility.yul\":786:795   */\n      dup3\n        /* \"#utility.yul\":777:784   */\n      dup5\n        /* \"#utility.yul\":773:796   */\n      sub\n        /* \"#utility.yul\":769:801   */\n      slt\n        /* \"#utility.yul\":766:885   */\n      iszero\n      tag_113\n      jumpi\n        /* \"#utility.yul\":804:883   */\n      tag_114\n      tag_92\n      jump\t// in\n    tag_114:\n        /* \"#utility.yul\":766:885   */\n    tag_113:\n        /* \"#utility.yul\":924:925   */\n      0x00\n        /* \"#utility.yul\":949:1002   */\n      tag_115\n        /* \"#utility.yul\":994:1001   */\n      dup5\n        /* \"#utility.yul\":985:991   */\n      dup3\n        /* \"#utility.yul\":974:983   */\n      dup6\n        /* \"#utility.yul\":970:992   */\n      add\n        /* \"#utility.yul\":949:1002   */\n      tag_96\n      jump\t// in\n    tag_115:\n        /* \"#utility.yul\":939:1002   */\n      swap2\n      pop\n        /* \"#utility.yul\":895:1012   */\n      pop\n        /* \"#utility.yul\":690:1019   */\n      swap3\n      swap2\n      pop\n      pop\n      jump\t// out\n        /* \"#utility.yul\":1025:1143   */\n    tag_97:\n        /* \"#utility.yul\":1112:1136   */\n      tag_117\n        /* \"#utility.yul\":1130:1135   */\n      dup2\n        /* \"#utility.yul\":1112:1136   */\n      tag_94\n      jump\t// in\n    tag_117:\n        /* \"#utility.yul\":1107:1110   */\n      dup3\n        /* \"#utility.yul\":1100:1137   */\n      mstore\n        /* \"#utility.yul\":1025:1143   */\n      pop\n      pop\n      jump\t// out\n        /* \"#utility.yul\":1149:1371   */\n    tag_15:\n        /* \"#utility.yul\":1242:1246   */\n      0x00\n        /* \"#utility.yul\":1280:1282   */\n      0x20\n        /* \"#utility.yul\":1269:1278   */\n      dup3\n        /* \"#utility.yul\":1265:1283   */\n      add\n        /* \"#utility.yul\":1257:1283   */\n      swap1\n      pop\n        /* \"#utility.yul\":1293:1364   */\n      tag_119\n        /* \"#utility.yul\":1361:1362   */\n      0x00\n        /* \"#utility.yul\":1350:1359   */\n      dup4\n        /* \"#utility.yul\":1346:1363   */\n      add\n        /* \"#utility.yul\":1337:1343   */\n      dup5\n        /* \"#utility.yul\":1293:1364   */\n      tag_97\n      jump\t// in\n    tag_119:\n        /* \"#utility.yul\":1149:1371   */\n      swap3\n      swap2\n      pop\n      pop\n      jump\t// out\n        /* \"#utility.yul\":1377:1546   */\n    tag_98:\n        /* \"#utility.yul\":1461:1472   */\n      0x00\n        /* \"#utility.yul\":1495:1501   */\n      dup3\n        /* \"#utility.yul\":1490:1493   */\n      dup3\n        /* \"#utility.yul\":1483:1502   */\n      mstore\n        /* \"#utility.yul\":1535:1539   */\n      0x20\n        /* \"#utility.yul\":1530:1533   */\n      dup3\n        /* \"#utility.yul\":1526:1540   */\n      add\n        /* \"#utility.yul\":1511:1540   */\n      swap1\n      pop\n        /* \"#utility.yul\":1377:1546   */\n      swap3\n      swap2\n      pop\n      pop\n      jump\t// out\n        /* \"#utility.yul\":1552:1729   */\n    tag_99:\n        /* \"#utility.yul\":1692:1721   */\n      0x63616e6e6f7420616c6c6f7720696478203e3d20617272206c656e0000000000\n        /* \"#utility.yul\":1688:1689   */\n      0x00\n        /* \"#utility.yul\":1680:1686   */\n      dup3\n        /* \"#utility.yul\":1676:1690   */\n      add\n        /* \"#utility.yul\":1669:1722   */\n      mstore\n        /* \"#utility.yul\":1552:1729   */\n      pop\n      jump\t// out\n        /* \"#utility.yul\":1735:2101   */\n    tag_100:\n        /* \"#utility.yul\":1877:1880   */\n      0x00\n        /* \"#utility.yul\":1898:1965   */\n      tag_123\n        /* \"#utility.yul\":1962:1964   */\n      0x1b\n        /* \"#utility.yul\":1957:1960   */\n      dup4\n        /* \"#utility.yul\":1898:1965   */\n      tag_98\n      jump\t// in\n    tag_123:\n        /* \"#utility.yul\":1891:1965   */\n      swap2\n      pop\n        /* \"#utility.yul\":1974:2067   */\n      tag_124\n        /* \"#utility.yul\":2063:2066   */\n      dup3\n        /* \"#utility.yul\":1974:2067   */\n      tag_99\n      jump\t// in\n    tag_124:\n        /* \"#utility.yul\":2092:2094   */\n      0x20\n        /* \"#utility.yul\":2087:2090   */\n      dup3\n        /* \"#utility.yul\":2083:2095   */\n      add\n        /* \"#utility.yul\":2076:2095   */\n      swap1\n      pop\n        /* \"#utility.yul\":1735:2101   */\n      swap2\n      swap1\n      pop\n      jump\t// out\n        /* \"#utility.yul\":2107:2526   */\n    tag_25:\n        /* \"#utility.yul\":2273:2277   */\n      0x00\n        /* \"#utility.yul\":2311:2313   */\n      0x20\n        /* \"#utility.yul\":2300:2309   */\n      dup3\n        /* \"#utility.yul\":2296:2314   */\n      add\n        /* \"#utility.yul\":2288:2314   */\n      swap1\n      pop\n        /* \"#utility.yul\":2360:2369   */\n      dup2\n        /* \"#utility.yul\":2354:2358   */\n      dup2\n        /* \"#utility.yul\":2350:2370   */\n      sub\n        /* \"#utility.yul\":2346:2347   */\n      0x00\n        /* \"#utility.yul\":2335:2344   */\n      dup4\n        /* \"#utility.yul\":2331:2348   */\n      add\n        /* \"#utility.yul\":2324:2371   */\n      mstore\n        /* \"#utility.yul\":2388:2519   */\n      tag_126\n        /* \"#utility.yul\":2514:2518   */\n      dup2\n        /* \"#utility.yul\":2388:2519   */\n      tag_100\n      jump\t// in\n    tag_126:\n        /* \"#utility.yul\":2380:2519   */\n      swap1\n      pop\n        /* \"#utility.yul\":2107:2526   */\n      swap2\n      swap1\n      pop\n      jump\t// out\n        /* \"#utility.yul\":2532:2712   */\n    tag_101:\n        /* \"#utility.yul\":2580:2657   */\n      0x4e487b7100000000000000000000000000000000000000000000000000000000\n        /* \"#utility.yul\":2577:2578   */\n      0x00\n        /* \"#utility.yul\":2570:2658   */\n      mstore\n        /* \"#utility.yul\":2677:2681   */\n      0x11\n        /* \"#utility.yul\":2674:2675   */\n      0x04\n        /* \"#utility.yul\":2667:2682   */\n      mstore\n        /* \"#utility.yul\":2701:2705   */\n      0x24\n        /* \"#utility.yul\":2698:2699   */\n      0x00\n        /* \"#utility.yul\":2691:2706   */\n      revert\n        /* \"#utility.yul\":2718:2912   */\n    tag_27:\n        /* \"#utility.yul\":2758:2762   */\n      0x00\n        /* \"#utility.yul\":2778:2798   */\n      tag_129\n        /* \"#utility.yul\":2796:2797   */\n      dup3\n        /* \"#utility.yul\":2778:2798   */\n      tag_94\n      jump\t// in\n    tag_129:\n        /* \"#utility.yul\":2773:2798   */\n      swap2\n      pop\n        /* \"#utility.yul\":2812:2832   */\n      tag_130\n        /* \"#utility.yul\":2830:2831   */\n      dup4\n        /* \"#utility.yul\":2812:2832   */\n      tag_94\n      jump\t// in\n    tag_130:\n        /* \"#utility.yul\":2807:2832   */\n      swap3\n      pop\n        /* \"#utility.yul\":2856:2857   */\n      dup3\n        /* \"#utility.yul\":2853:2854   */\n      dup3\n        /* \"#utility.yul\":2849:2858   */\n      sub\n        /* \"#utility.yul\":2841:2858   */\n      swap1\n      pop\n        /* \"#utility.yul\":2880:2881   */\n      dup2\n        /* \"#utility.yul\":2874:2878   */\n      dup2\n        /* \"#utility.yul\":2871:2882   */\n      gt\n        /* \"#utility.yul\":2868:2905   */\n      iszero\n      tag_131\n      jumpi\n        /* \"#utility.yul\":2885:2903   */\n      tag_132\n      tag_101\n      jump\t// in\n    tag_132:\n        /* \"#utility.yul\":2868:2905   */\n    tag_131:\n        /* \"#utility.yul\":2718:2912   */\n      swap3\n      swap2\n      pop\n      pop\n      jump\t// out\n        /* \"#utility.yul\":2918:3098   */\n    tag_30:\n        /* \"#utility.yul\":2966:3043   */\n      0x4e487b7100000000000000000000000000000000000000000000000000000000\n        /* \"#utility.yul\":2963:2964   */\n      0x00\n        /* \"#utility.yul\":2956:3044   */\n      mstore\n        /* \"#utility.yul\":3063:3067   */\n      0x32\n        /* \"#utility.yul\":3060:3061   */\n      0x04\n        /* \"#utility.yul\":3053:3068   */\n      mstore\n        /* \"#utility.yul\":3087:3091   */\n      0x24\n        /* \"#utility.yul\":3084:3085   */\n      0x00\n        /* \"#utility.yul\":3077:3092   */\n      revert\n        /* \"#utility.yul\":3104:3284   */\n    tag_37:\n        /* \"#utility.yul\":3152:3229   */\n      0x4e487b7100000000000000000000000000000000000000000000000000000000\n        /* \"#utility.yul\":3149:3150   */\n      0x00\n        /* \"#utility.yul\":3142:3230   */\n      mstore\n        /* \"#utility.yul\":3249:3253   */\n      0x31\n        /* \"#utility.yul\":3246:3247   */\n      0x04\n        /* \"#utility.yul\":3239:3254   */\n      mstore\n        /* \"#utility.yul\":3273:3277   */\n      0x24\n        /* \"#utility.yul\":3270:3271   */\n      0x00\n        /* \"#utility.yul\":3263:3278   */\n      revert\n        /* \"#utility.yul\":3290:3470   */\n    tag_51:\n        /* \"#utility.yul\":3338:3415   */\n      0x4e487b7100000000000000000000000000000000000000000000000000000000\n        /* \"#utility.yul\":3335:3336   */\n      0x00\n        /* \"#utility.yul\":3328:3416   */\n      mstore\n        /* \"#utility.yul\":3435:3439   */\n      0x01\n        /* \"#utility.yul\":3432:3433   */\n      0x04\n        /* \"#utility.yul\":3425:3440   */\n      mstore\n        /* \"#utility.yul\":3459:3463   */\n      0x24\n        /* \"#utility.yul\":3456:3457   */\n      0x00\n        /* \"#utility.yul\":3449:3464   */\n      revert\n\n    auxdata: 0xa26469706673582212206604f7bdb78d3567aa4ccbde4ef418db398ef547130de137a473b2648baa9e7764736f6c634300081a0033\n}\n",
				"bytecode": {
					"linkReferences": {},
					"object": "6080604052348015600e575f80fd5b506105fe8061001c5f395ff3fe608060405234801561000f575f80fd5b506004361061004a575f3560e01c80634cc822151461004e57806371e5ee5f1461006a578063edf0099b1461009a578063f8a8fd6d146100ca575b5f80fd5b61006860048036038101906100639190610416565b6100d4565b005b610084600480360381019061007f9190610416565b61018c565b6040516100919190610450565b60405180910390f35b6100b460048036038101906100af9190610416565b6101ab565b6040516100c19190610450565b60405180910390f35b6100d26101c4565b005b5f80549050811061011a576040517f08c379a0000000000000000000000000000000000000000000000000000000008152600401610111906104c3565b60405180910390fd5b5f60015f8054905061012c919061050e565b8154811061013d5761013c610541565b5b905f5260205f2001545f828154811061015957610158610541565b5b905f5260205f2001819055505f8054806101765761017561056e565b5b600190038181905f5260205f20015f9055905550565b5f818154811061019a575f80fd5b905f5260205f20015f915090505481565b600181600481106101ba575f80fd5b015f915090505481565b6040518060800160405280600160ff168152602001600260ff168152602001600360ff168152602001600460ff168152506001906004610205929190610337565b5060015f90600461021792919061037c565b5061022260016100d4565b60035f80549050146102375761023661059b565b5b60015f808154811061024c5761024b610541565b5b905f5260205f200154146102635761026261059b565b5b60045f60018154811061027957610278610541565b5b905f5260205f200154146102905761028f61059b565b5b60035f6002815481106102a6576102a5610541565b5b905f5260205f200154146102bd576102bc61059b565b5b6102c760026100d4565b60025f80549050146102dc576102db61059b565b5b60015f80815481106102f1576102f0610541565b5b905f5260205f200154146103085761030761059b565b5b60045f60018154811061031e5761031d610541565b5b905f5260205f200154146103355761033461059b565b5b565b826004810192821561036b579160200282015b8281111561036a578251829060ff1690559160200191906001019061034a565b5b50905061037891906103c4565b5090565b828054828255905f5260205f209081019282156103b3579182015b828111156103b2578254825591600101919060010190610397565b5b5090506103c091906103c4565b5090565b5b808211156103db575f815f9055506001016103c5565b5090565b5f80fd5b5f819050919050565b6103f5816103e3565b81146103ff575f80fd5b50565b5f81359050610410816103ec565b92915050565b5f6020828403121561042b5761042a6103df565b5b5f61043884828501610402565b91505092915050565b61044a816103e3565b82525050565b5f6020820190506104635f830184610441565b92915050565b5f82825260208201905092915050565b7f63616e6e6f7420616c6c6f7720696478203e3d20617272206c656e00000000005f82015250565b5f6104ad601b83610469565b91506104b882610479565b602082019050919050565b5f6020820190508181035f8301526104da816104a1565b9050919050565b7f4e487b71000000000000000000000000000000000000000000000000000000005f52601160045260245ffd5b5f610518826103e3565b9150610523836103e3565b925082820390508181111561053b5761053a6104e1565b5b92915050565b7f4e487b71000000000000000000000000000000000000000000000000000000005f52603260045260245ffd5b7f4e487b71000000000000000000000000000000000000000000000000000000005f52603160045260245ffd5b7f4e487b71000000000000000000000000000000000000000000000000000000005f52600160045260245ffdfea26469706673582212206604f7bdb78d3567aa4ccbde4ef418db398ef547130de137a473b2648baa9e7764736f6c634300081a0033",
					"opcodes": "PUSH1 0x80 PUSH1 0x40 MSTORE CALLVALUE DUP1 ISZERO PUSH1 0xE JUMPI PUSH0 DUP1 REVERT JUMPDEST POP PUSH2 0x5FE DUP1 PUSH2 0x1C PUSH0 CODECOPY PUSH0 RETURN INVALID PUSH1 0x80 PUSH1 0x40 MSTORE CALLVALUE DUP1 ISZERO PUSH2 0xF JUMPI PUSH0 DUP1 REVERT JUMPDEST POP PUSH1 0x4 CALLDATASIZE LT PUSH2 0x4A JUMPI PUSH0 CALLDATALOAD PUSH1 0xE0 SHR DUP1 PUSH4 0x4CC82215 EQ PUSH2 0x4E JUMPI DUP1 PUSH4 0x71E5EE5F EQ PUSH2 0x6A JUMPI DUP1 PUSH4 0xEDF0099B EQ PUSH2 0x9A JUMPI DUP1 PUSH4 0xF8A8FD6D EQ PUSH2 0xCA JUMPI JUMPDEST PUSH0 DUP1 REVERT JUMPDEST PUSH2 0x68 PUSH1 0x4 DUP1 CALLDATASIZE SUB DUP2 ADD SWAP1 PUSH2 0x63 SWAP2 SWAP1 PUSH2 0x416 JUMP JUMPDEST PUSH2 0xD4 JUMP JUMPDEST STOP JUMPDEST PUSH2 0x84 PUSH1 0x4 DUP1 CALLDATASIZE SUB DUP2 ADD SWAP1 PUSH2 0x7F SWAP2 SWAP1 PUSH2 0x416 JUMP JUMPDEST PUSH2 0x18C JUMP JUMPDEST PUSH1 0x40 MLOAD PUSH2 0x91 SWAP2 SWAP1 PUSH2 0x450 JUMP JUMPDEST PUSH1 0x40 MLOAD DUP1 SWAP2 SUB SWAP1 RETURN JUMPDEST PUSH2 0xB4 PUSH1 0x4 DUP1 CALLDATASIZE SUB DUP2 ADD SWAP1 PUSH2 0xAF SWAP2 SWAP1 PUSH2 0x416 JUMP JUMPDEST PUSH2 0x1AB JUMP JUMPDEST PUSH1 0x40 MLOAD PUSH2 0xC1 SWAP2 SWAP1 PUSH2 0x450 JUMP JUMPDEST PUSH1 0x40 MLOAD DUP1 SWAP2 SUB SWAP1 RETURN JUMPDEST PUSH2 0xD2 PUSH2 0x1C4 JUMP JUMPDEST STOP JUMPDEST PUSH0 DUP1 SLOAD SWAP1 POP DUP2 LT PUSH2 0x11A JUMPI PUSH1 0x40 MLOAD PUSH32 0x8C379A000000000000000000000000000000000000000000000000000000000 DUP2 MSTORE PUSH1 0x4 ADD PUSH2 0x111 SWAP1 PUSH2 0x4C3 JUMP JUMPDEST PUSH1 0x40 MLOAD DUP1 SWAP2 SUB SWAP1 REVERT JUMPDEST PUSH0 PUSH1 0x1 PUSH0 DUP1 SLOAD SWAP1 POP PUSH2 0x12C SWAP2 SWAP1 PUSH2 0x50E JUMP JUMPDEST DUP2 SLOAD DUP2 LT PUSH2 0x13D JUMPI PUSH2 0x13C PUSH2 0x541 JUMP JUMPDEST JUMPDEST SWAP1 PUSH0 MSTORE PUSH1 0x20 PUSH0 KECCAK256 ADD SLOAD PUSH0 DUP3 DUP2 SLOAD DUP2 LT PUSH2 0x159 JUMPI PUSH2 0x158 PUSH2 0x541 JUMP JUMPDEST JUMPDEST SWAP1 PUSH0 MSTORE PUSH1 0x20 PUSH0 KECCAK256 ADD DUP2 SWAP1 SSTORE POP PUSH0 DUP1 SLOAD DUP1 PUSH2 0x176 JUMPI PUSH2 0x175 PUSH2 0x56E JUMP JUMPDEST JUMPDEST PUSH1 0x1 SWAP1 SUB DUP2 DUP2 SWAP1 PUSH0 MSTORE PUSH1 0x20 PUSH0 KECCAK256 ADD PUSH0 SWAP1 SSTORE SWAP1 SSTORE POP JUMP JUMPDEST PUSH0 DUP2 DUP2 SLOAD DUP2 LT PUSH2 0x19A JUMPI PUSH0 DUP1 REVERT JUMPDEST SWAP1 PUSH0 MSTORE PUSH1 0x20 PUSH0 KECCAK256 ADD PUSH0 SWAP2 POP SWAP1 POP SLOAD DUP2 JUMP JUMPDEST PUSH1 0x1 DUP2 PUSH1 0x4 DUP2 LT PUSH2 0x1BA JUMPI PUSH0 DUP1 REVERT JUMPDEST ADD PUSH0 SWAP2 POP SWAP1 POP SLOAD DUP2 JUMP JUMPDEST PUSH1 0x40 MLOAD DUP1 PUSH1 0x80 ADD PUSH1 0x40 MSTORE DUP1 PUSH1 0x1 PUSH1 0xFF AND DUP2 MSTORE PUSH1 0x20 ADD PUSH1 0x2 PUSH1 0xFF AND DUP2 MSTORE PUSH1 0x20 ADD PUSH1 0x3 PUSH1 0xFF AND DUP2 MSTORE PUSH1 0x20 ADD PUSH1 0x4 PUSH1 0xFF AND DUP2 MSTORE POP PUSH1 0x1 SWAP1 PUSH1 0x4 PUSH2 0x205 SWAP3 SWAP2 SWAP1 PUSH2 0x337 JUMP JUMPDEST POP PUSH1 0x1 PUSH0 SWAP1 PUSH1 0x4 PUSH2 0x217 SWAP3 SWAP2 SWAP1 PUSH2 0x37C JUMP JUMPDEST POP PUSH2 0x222 PUSH1 0x1 PUSH2 0xD4 JUMP JUMPDEST PUSH1 0x3 PUSH0 DUP1 SLOAD SWAP1 POP EQ PUSH2 0x237 JUMPI PUSH2 0x236 PUSH2 0x59B JUMP JUMPDEST JUMPDEST PUSH1 0x1 PUSH0 DUP1 DUP2 SLOAD DUP2 LT PUSH2 0x24C JUMPI PUSH2 0x24B PUSH2 0x541 JUMP JUMPDEST JUMPDEST SWAP1 PUSH0 MSTORE PUSH1 0x20 PUSH0 KECCAK256 ADD SLOAD EQ PUSH2 0x263 JUMPI PUSH2 0x262 PUSH2 0x59B JUMP JUMPDEST JUMPDEST PUSH1 0x4 PUSH0 PUSH1 0x1 DUP2 SLOAD DUP2 LT PUSH2 0x279 JUMPI PUSH2 0x278 PUSH2 0x541 JUMP JUMPDEST JUMPDEST SWAP1 PUSH0 MSTORE PUSH1 0x20 PUSH0 KECCAK256 ADD SLOAD EQ PUSH2 0x290 JUMPI PUSH2 0x28F PUSH2 0x59B JUMP JUMPDEST JUMPDEST PUSH1 0x3 PUSH0 PUSH1 0x2 DUP2 SLOAD DUP2 LT PUSH2 0x2A6 JUMPI PUSH2 0x2A5 PUSH2 0x541 JUMP JUMPDEST JUMPDEST SWAP1 PUSH0 MSTORE PUSH1 0x20 PUSH0 KECCAK256 ADD SLOAD EQ PUSH2 0x2BD JUMPI PUSH2 0x2BC PUSH2 0x59B JUMP JUMPDEST JUMPDEST PUSH2 0x2C7 PUSH1 0x2 PUSH2 0xD4 JUMP JUMPDEST PUSH1 0x2 PUSH0 DUP1 SLOAD SWAP1 POP EQ PUSH2 0x2DC JUMPI PUSH2 0x2DB PUSH2 0x59B JUMP JUMPDEST JUMPDEST PUSH1 0x1 PUSH0 DUP1 DUP2 SLOAD DUP2 LT PUSH2 0x2F1 JUMPI PUSH2 0x2F0 PUSH2 0x541 JUMP JUMPDEST JUMPDEST SWAP1 PUSH0 MSTORE PUSH1 0x20 PUSH0 KECCAK256 ADD SLOAD EQ PUSH2 0x308 JUMPI PUSH2 0x307 PUSH2 0x59B JUMP JUMPDEST JUMPDEST PUSH1 0x4 PUSH0 PUSH1 0x1 DUP2 SLOAD DUP2 LT PUSH2 0x31E JUMPI PUSH2 0x31D PUSH2 0x541 JUMP JUMPDEST JUMPDEST SWAP1 PUSH0 MSTORE PUSH1 0x20 PUSH0 KECCAK256 ADD SLOAD EQ PUSH2 0x335 JUMPI PUSH2 0x334 PUSH2 0x59B JUMP JUMPDEST JUMPDEST JUMP JUMPDEST DUP3 PUSH1 0x4 DUP2 ADD SWAP3 DUP3 ISZERO PUSH2 0x36B JUMPI SWAP2 PUSH1 0x20 MUL DUP3 ADD JUMPDEST DUP3 DUP2 GT ISZERO PUSH2 0x36A JUMPI DUP3 MLOAD DUP3 SWAP1 PUSH1 0xFF AND SWAP1 SSTORE SWAP2 PUSH1 0x20 ADD SWAP2 SWAP1 PUSH1 0x1 ADD SWAP1 PUSH2 0x34A JUMP JUMPDEST JUMPDEST POP SWAP1 POP PUSH2 0x378 SWAP2 SWAP1 PUSH2 0x3C4 JUMP JUMPDEST POP SWAP1 JUMP JUMPDEST DUP3 DUP1 SLOAD DUP3 DUP3 SSTORE SWAP1 PUSH0 MSTORE PUSH1 0x20 PUSH0 KECCAK256 SWAP1 DUP2 ADD SWAP3 DUP3 ISZERO PUSH2 0x3B3 JUMPI SWAP2 DUP3 ADD JUMPDEST DUP3 DUP2 GT ISZERO PUSH2 0x3B2 JUMPI DUP3 SLOAD DUP3 SSTORE SWAP2 PUSH1 0x1 ADD SWAP2 SWAP1 PUSH1 0x1 ADD SWAP1 PUSH2 0x397 JUMP JUMPDEST JUMPDEST POP SWAP1 POP PUSH2 0x3C0 SWAP2 SWAP1 PUSH2 0x3C4 JUMP JUMPDEST POP SWAP1 JUMP JUMPDEST JUMPDEST DUP1 DUP3 GT ISZERO PUSH2 0x3DB JUMPI PUSH0 DUP2 PUSH0 SWAP1 SSTORE POP PUSH1 0x1 ADD PUSH2 0x3C5 JUMP JUMPDEST POP SWAP1 JUMP JUMPDEST PUSH0 DUP1 REVERT JUMPDEST PUSH0 DUP2 SWAP1 POP SWAP2 SWAP1 POP JUMP JUMPDEST PUSH2 0x3F5 DUP2 PUSH2 0x3E3 JUMP JUMPDEST DUP2 EQ PUSH2 0x3FF JUMPI PUSH0 DUP1 REVERT JUMPDEST POP JUMP JUMPDEST PUSH0 DUP2 CALLDATALOAD SWAP1 POP PUSH2 0x410 DUP2 PUSH2 0x3EC JUMP JUMPDEST SWAP3 SWAP2 POP POP JUMP JUMPDEST PUSH0 PUSH1 0x20 DUP3 DUP5 SUB SLT ISZERO PUSH2 0x42B JUMPI PUSH2 0x42A PUSH2 0x3DF JUMP JUMPDEST JUMPDEST PUSH0 PUSH2 0x438 DUP5 DUP3 DUP6 ADD PUSH2 0x402 JUMP JUMPDEST SWAP2 POP POP SWAP3 SWAP2 POP POP JUMP JUMPDEST PUSH2 0x44A DUP2 PUSH2 0x3E3 JUMP JUMPDEST DUP3 MSTORE POP POP JUMP JUMPDEST PUSH0 PUSH1 0x20 DUP3 ADD SWAP1 POP PUSH2 0x463 PUSH0 DUP4 ADD DUP5 PUSH2 0x441 JUMP JUMPDEST SWAP3 SWAP2 POP POP JUMP JUMPDEST PUSH0 DUP3 DUP3 MSTORE PUSH1 0x20 DUP3 ADD SWAP1 POP SWAP3 SWAP2 POP POP JUMP JUMPDEST PUSH32 0x63616E6E6F7420616C6C6F7720696478203E3D20617272206C656E0000000000 PUSH0 DUP3 ADD MSTORE POP JUMP JUMPDEST PUSH0 PUSH2 0x4AD PUSH1 0x1B DUP4 PUSH2 0x469 JUMP JUMPDEST SWAP2 POP PUSH2 0x4B8 DUP3 PUSH2 0x479 JUMP JUMPDEST PUSH1 0x20 DUP3 ADD SWAP1 POP SWAP2 SWAP1 POP JUMP JUMPDEST PUSH0 PUSH1 0x20 DUP3 ADD SWAP1 POP DUP2 DUP2 SUB PUSH0 DUP4 ADD MSTORE PUSH2 0x4DA DUP2 PUSH2 0x4A1 JUMP JUMPDEST SWAP1 POP SWAP2 SWAP1 POP JUMP JUMPDEST PUSH32 0x4E487B7100000000000000000000000000000000000000000000000000000000 PUSH0 MSTORE PUSH1 0x11 PUSH1 0x4 MSTORE PUSH1 0x24 PUSH0 REVERT JUMPDEST PUSH0 PUSH2 0x518 DUP3 PUSH2 0x3E3 JUMP JUMPDEST SWAP2 POP PUSH2 0x523 DUP4 PUSH2 0x3E3 JUMP JUMPDEST SWAP3 POP DUP3 DUP3 SUB SWAP1 POP DUP2 DUP2 GT ISZERO PUSH2 0x53B JUMPI PUSH2 0x53A PUSH2 0x4E1 JUMP JUMPDEST JUMPDEST SWAP3 SWAP2 POP POP JUMP JUMPDEST PUSH32 0x4E487B7100000000000000000000000000000000000000000000000000000000 PUSH0 MSTORE PUSH1 0x32 PUSH1 0x4 MSTORE PUSH1 0x24 PUSH0 REVERT JUMPDEST PUSH32 0x4E487B7100000000000000000000000000000000000000000000000000000000 PUSH0 MSTORE PUSH1 0x31 PUSH1 0x4 MSTORE PUSH1 0x24 PUSH0 REVERT JUMPDEST PUSH32 0x4E487B7100000000000000000000000000000000000000000000000000000000 PUSH0 MSTORE PUSH1 0x1 PUSH1 0x4 MSTORE PUSH1 0x24 PUSH0 REVERT INVALID LOG2 PUSH5 0x6970667358 0x22 SLT KECCAK256 PUSH7 0x4F7BDB78D3567 0xAA 0x4C 0xCB 0xDE 0x4E DELEGATECALL XOR 0xDB CODECOPY DUP15 CREATE2 SELFBALANCE SGT 0xD 0xE1 CALLDATACOPY LOG4 PUSH20 0xB2648BAA9E7764736F6C634300081A0033000000 "
				},
				"gasEstimates": {
					"creation": {
						"codeDepositCost": "306800",
						"executionCost": "341",
						"totalCost": "307141"
					},
					"external": {
						"arr(uint256)": "infinite",
						"arr2(uint256)": "infinite",
						"remove(uint256)": "infinite",
						"test()": "infinite"
					}
				},
				"methodIdentifiers": {
					"arr(uint256)": "71e5ee5f",
					"arr2(uint256)": "edf0099b",
					"remove(uint256)": "4cc82215",
					"test()": "f8a8fd6d"
				}
			},
			"storageLayout": {
				"storage": [
					{
						"astId": 4,
						"contract": "contracts/_15ArrayReplaceFromEnd.sol:ArrayReplaceFromEnd",
						"label": "arr",
						"offset": 0,
						"slot": "0",
						"type": "t_array(t_uint256)dyn_storage"
					},
					{
						"astId": 8,
						"contract": "contracts/_15ArrayReplaceFromEnd.sol:ArrayReplaceFromEnd",
						"label": "arr2",
						"offset": 0,
						"slot": "1",
						"type": "t_array(t_uint256)4_storage"
					}
				],
				"types": {
					"t_array(t_uint256)4_storage": {
						"base": "t_uint256",
						"encoding": "inplace",
						"label": "uint256[4]",
						"numberOfBytes": "128"
					},
					"t_array(t_uint256)dyn_storage": {
						"base": "t_uint256",
						"encoding": "dynamic_array",
						"label": "uint256[]",
						"numberOfBytes": "32"
					},
					"t_uint256": {
						"encoding": "inplace",
						"label": "uint256",
						"numberOfBytes": "32"
					}
				}
			},
			"userdoc": {
				"kind": "user",
				"methods": {},
				"version": 1
			}
		}
	}
}