{
	"contracts/_8Gas.sol": {
		"Gas": {
			"abi": [
				{
					"inputs": [],
					"name": "addexternal",
					"outputs": [],
					"stateMutability": "nonpayable",
					"type": "function"
				},
				{
					"inputs": [],
					"name": "forever",
					"outputs": [],
					"stateMutability": "nonpayable",
					"type": "function"
				}
			],
			"devdoc": {
				"kind": "dev",
				"methods": {},
				"version": 1
			},
			"evm": {
				"assembly": "    /* \"contracts/_8Gas.sol\":58:580  contract Gas {... */\n  mstore(0x40, 0x80)\n    /* \"contracts/_8Gas.sol\":89:90  0 */\n  0x00\n    /* \"contracts/_8Gas.sol\":77:90  uint256 i = 0 */\n  dup1\n  sstore\n    /* \"contracts/_8Gas.sol\":58:580  contract Gas {... */\n  callvalue\n  dup1\n  iszero\n  tag_1\n  jumpi\n  0x00\n  dup1\n  revert\ntag_1:\n  pop\n  dataSize(sub_0)\n  dup1\n  dataOffset(sub_0)\n  0x00\n  codecopy\n  0x00\n  return\nstop\n\nsub_0: assembly {\n        /* \"contracts/_8Gas.sol\":58:580  contract Gas {... */\n      mstore(0x40, 0x80)\n      callvalue\n      dup1\n      iszero\n      tag_1\n      jumpi\n      0x00\n      dup1\n      revert\n    tag_1:\n      pop\n      jumpi(tag_2, lt(calldatasize, 0x04))\n      shr(0xe0, calldataload(0x00))\n      dup1\n      0x9ff9a603\n      eq\n      tag_3\n      jumpi\n      dup1\n      0xd798e17f\n      eq\n      tag_4\n      jumpi\n    tag_2:\n      0x00\n      dup1\n      revert\n        /* \"contracts/_8Gas.sol\":336:520  function forever() public {... */\n    tag_3:\n      tag_5\n      tag_6\n      jump\t// in\n    tag_5:\n      stop\n        /* \"contracts/_8Gas.sol\":526:578  function addexternal() public {... */\n    tag_4:\n      tag_7\n      tag_8\n      jump\t// in\n    tag_7:\n      stop\n        /* \"contracts/_8Gas.sol\":336:520  function forever() public {... */\n    tag_6:\n        /* \"contracts/_8Gas.sol\":470:514  while (true) {... */\n    tag_10:\n        /* \"contracts/_8Gas.sol\":477:481  true */\n      0x01\n        /* \"contracts/_8Gas.sol\":470:514  while (true) {... */\n      iszero\n      tag_11\n      jumpi\n        /* \"contracts/_8Gas.sol\":502:503  1 */\n      0x01\n        /* \"contracts/_8Gas.sol\":497:498  i */\n      0x00\n      dup1\n        /* \"contracts/_8Gas.sol\":497:503  i += 1 */\n      dup3\n      dup3\n      sload\n      tag_12\n      swap2\n      swap1\n      tag_13\n      jump\t// in\n    tag_12:\n      swap3\n      pop\n      pop\n      dup2\n      swap1\n      sstore\n      pop\n        /* \"contracts/_8Gas.sol\":470:514  while (true) {... */\n      jump(tag_10)\n    tag_11:\n        /* \"contracts/_8Gas.sol\":336:520  function forever() public {... */\n      jump\t// out\n        /* \"contracts/_8Gas.sol\":526:578  function addexternal() public {... */\n    tag_8:\n        /* \"contracts/_8Gas.sol\":566:571  add() */\n      tag_15\n        /* \"contracts/_8Gas.sol\":566:569  add */\n      tag_16\n        /* \"contracts/_8Gas.sol\":566:571  add() */\n      jump\t// in\n    tag_15:\n        /* \"contracts/_8Gas.sol\":526:578  function addexternal() public {... */\n      jump\t// out\n        /* \"contracts/_8Gas.sol\":97:184  function add() internal {... */\n    tag_16:\n        /* \"contracts/_8Gas.sol\":131:178  while (true) {... */\n    tag_18:\n        /* \"contracts/_8Gas.sol\":138:142  true */\n      0x01\n        /* \"contracts/_8Gas.sol\":131:178  while (true) {... */\n      iszero\n      tag_19\n      jumpi\n        /* \"contracts/_8Gas.sol\":166:167  1 */\n      0x01\n        /* \"contracts/_8Gas.sol\":162:163  i */\n      sload(0x00)\n        /* \"contracts/_8Gas.sol\":162:167  i + 1 */\n      tag_20\n      swap2\n      swap1\n      tag_13\n      jump\t// in\n    tag_20:\n        /* \"contracts/_8Gas.sol\":158:159  i */\n      0x00\n        /* \"contracts/_8Gas.sol\":158:167  i = i + 1 */\n      dup2\n      swap1\n      sstore\n      pop\n        /* \"contracts/_8Gas.sol\":131:178  while (true) {... */\n      jump(tag_18)\n    tag_19:\n        /* \"contracts/_8Gas.sol\":97:184  function add() internal {... */\n      jump\t// out\n        /* \"#utility.yul\":7:84   */\n    tag_21:\n        /* \"#utility.yul\":44:51   */\n      0x00\n        /* \"#utility.yul\":73:78   */\n      dup2\n        /* \"#utility.yul\":62:78   */\n      swap1\n      pop\n        /* \"#utility.yul\":7:84   */\n      swap2\n      swap1\n      pop\n      jump\t// out\n        /* \"#utility.yul\":90:270   */\n    tag_22:\n        /* \"#utility.yul\":138:215   */\n      0x4e487b7100000000000000000000000000000000000000000000000000000000\n        /* \"#utility.yul\":135:136   */\n      0x00\n        /* \"#utility.yul\":128:216   */\n      mstore\n        /* \"#utility.yul\":235:239   */\n      0x11\n        /* \"#utility.yul\":232:233   */\n      0x04\n        /* \"#utility.yul\":225:240   */\n      mstore\n        /* \"#utility.yul\":259:263   */\n      0x24\n        /* \"#utility.yul\":256:257   */\n      0x00\n        /* \"#utility.yul\":249:264   */\n      revert\n        /* \"#utility.yul\":276:467   */\n    tag_13:\n        /* \"#utility.yul\":316:319   */\n      0x00\n        /* \"#utility.yul\":335:355   */\n      tag_27\n        /* \"#utility.yul\":353:354   */\n      dup3\n        /* \"#utility.yul\":335:355   */\n      tag_21\n      jump\t// in\n    tag_27:\n        /* \"#utility.yul\":330:355   */\n      swap2\n      pop\n        /* \"#utility.yul\":369:389   */\n      tag_28\n        /* \"#utility.yul\":387:388   */\n      dup4\n        /* \"#utility.yul\":369:389   */\n      tag_21\n      jump\t// in\n    tag_28:\n        /* \"#utility.yul\":364:389   */\n      swap3\n      pop\n        /* \"#utility.yul\":412:413   */\n      dup3\n        /* \"#utility.yul\":409:410   */\n      dup3\n        /* \"#utility.yul\":405:414   */\n      add\n        /* \"#utility.yul\":398:414   */\n      swap1\n      pop\n        /* \"#utility.yul\":433:436   */\n      dup1\n        /* \"#utility.yul\":430:431   */\n      dup3\n        /* \"#utility.yul\":427:437   */\n      gt\n        /* \"#utility.yul\":424:460   */\n      iszero\n      tag_29\n      jumpi\n        /* \"#utility.yul\":440:458   */\n      tag_30\n      tag_22\n      jump\t// in\n    tag_30:\n        /* \"#utility.yul\":424:460   */\n    tag_29:\n        /* \"#utility.yul\":276:467   */\n      swap3\n      swap2\n      pop\n      pop\n      jump\t// out\n\n    auxdata: 0xa2646970667358221220378cc34480941d67030f63a03b3f31cca6128467a64deac13b3b17c99ea726c564736f6c634300081a0033\n}\n",
				"bytecode": {
					"linkReferences": {},
					"object": "60806040525f80553480156011575f80fd5b506101258061001f5f395ff3fe6080604052348015600e575f80fd5b50600436106030575f3560e01c80639ff9a603146034578063d798e17f14603c575b5f80fd5b603a6044565b005b60426067565b005b5b60011560655760015f80828254605a919060c3565b925050819055506045565b565b606d606f565b565b5b600115608b5760015f546082919060c3565b5f819055506070565b565b5f819050919050565b7f4e487b71000000000000000000000000000000000000000000000000000000005f52601160045260245ffd5b5f60cb82608d565b915060d483608d565b925082820190508082111560e95760e86096565b5b9291505056fea2646970667358221220378cc34480941d67030f63a03b3f31cca6128467a64deac13b3b17c99ea726c564736f6c634300081a0033",
					"opcodes": "PUSH1 0x80 PUSH1 0x40 MSTORE PUSH0 DUP1 SSTORE CALLVALUE DUP1 ISZERO PUSH1 0x11 JUMPI PUSH0 DUP1 REVERT JUMPDEST POP PUSH2 0x125 DUP1 PUSH2 0x1F PUSH0 CODECOPY PUSH0 RETURN INVALID PUSH1 0x80 PUSH1 0x40 MSTORE CALLVALUE DUP1 ISZERO PUSH1 0xE JUMPI PUSH0 DUP1 REVERT JUMPDEST POP PUSH1 0x4 CALLDATASIZE LT PUSH1 0x30 JUMPI PUSH0 CALLDATALOAD PUSH1 0xE0 SHR DUP1 PUSH4 0x9FF9A603 EQ PUSH1 0x34 JUMPI DUP1 PUSH4 0xD798E17F EQ PUSH1 0x3C JUMPI JUMPDEST PUSH0 DUP1 REVERT JUMPDEST PUSH1 0x3A PUSH1 0x44 JUMP JUMPDEST STOP JUMPDEST PUSH1 0x42 PUSH1 0x67 JUMP JUMPDEST STOP JUMPDEST JUMPDEST PUSH1 0x1 ISZERO PUSH1 0x65 JUMPI PUSH1 0x1 PUSH0 DUP1 DUP3 DUP3 SLOAD PUSH1 0x5A SWAP2 SWAP1 PUSH1 0xC3 JUMP JUMPDEST SWAP3 POP POP DUP2 SWAP1 SSTORE POP PUSH1 0x45 JUMP JUMPDEST JUMP JUMPDEST PUSH1 0x6D PUSH1 0x6F JUMP JUMPDEST JUMP JUMPDEST JUMPDEST PUSH1 0x1 ISZERO PUSH1 0x8B JUMPI PUSH1 0x1 PUSH0 SLOAD PUSH1 0x82 SWAP2 SWAP1 PUSH1 0xC3 JUMP JUMPDEST PUSH0 DUP2 SWAP1 SSTORE POP PUSH1 0x70 JUMP JUMPDEST JUMP JUMPDEST PUSH0 DUP2 SWAP1 POP SWAP2 SWAP1 POP JUMP JUMPDEST PUSH32 0x4E487B7100000000000000000000000000000000000000000000000000000000 PUSH0 MSTORE PUSH1 0x11 PUSH1 0x4 MSTORE PUSH1 0x24 PUSH0 REVERT JUMPDEST PUSH0 PUSH1 0xCB DUP3 PUSH1 0x8D JUMP JUMPDEST SWAP2 POP PUSH1 0xD4 DUP4 PUSH1 0x8D JUMP JUMPDEST SWAP3 POP DUP3 DUP3 ADD SWAP1 POP DUP1 DUP3 GT ISZERO PUSH1 0xE9 JUMPI PUSH1 0xE8 PUSH1 0x96 JUMP JUMPDEST JUMPDEST SWAP3 SWAP2 POP POP JUMP INVALID LOG2 PUSH5 0x6970667358 0x22 SLT KECCAK256 CALLDATACOPY DUP13 0xC3 PREVRANDAO DUP1 SWAP5 SAR PUSH8 0x30F63A03B3F31CC 0xA6 SLT DUP5 PUSH8 0xA64DEAC13B3B17C9 SWAP15 0xA7 0x26 0xC5 PUSH5 0x736F6C6343 STOP ADDMOD BYTE STOP CALLER "
				},
				"gasEstimates": {
					"creation": {
						"codeDepositCost": "58600",
						"executionCost": "5114",
						"totalCost": "63714"
					},
					"external": {
						"addexternal()": "infinite",
						"forever()": "infinite"
					},
					"internal": {
						"add()": "infinite"
					}
				},
				"methodIdentifiers": {
					"addexternal()": "d798e17f",
					"forever()": "9ff9a603"
				}
			},
			"storageLayout": {
				"storage": [
					{
						"astId": 4,
						"contract": "contracts/_8Gas.sol:Gas",
						"label": "i",
						"offset": 0,
						"slot": "0",
						"type": "t_uint256"
					}
				],
				"types": {
					"t_uint256": {
						"encoding": "inplace",
						"label": "uint256",
						"numberOfBytes": "32"
					}
				}
			},
			"userdoc": {
				"kind": "user",
				"methods": {},
				"version": 1
			}
		}
	}
}