{
	"data": {
		"bytecode": {
			"linkReferences": {},
			"object": "6080604052348015600e575f80fd5b506101c28061001c5f395ff3fe608060405234801561000f575f80fd5b5060043610610034575f3560e01c80631adea6cf146100385780635a2ee01914610058575b5f80fd5b610040610076565b60405161004f939291906100de565b60405180910390f35b6100606100c1565b60405161006d9190610113565b60405180910390f35b5f805f80602d905060595f8190555060015f546100939190610159565b5f8190555060015f546100a69190610159565b5f819055505f60229050815f54829450945094505050909192565b5f5481565b5f819050919050565b6100d8816100c6565b82525050565b5f6060820190506100f15f8301866100cf565b6100fe60208301856100cf565b61010b60408301846100cf565b949350505050565b5f6020820190506101265f8301846100cf565b92915050565b7f4e487b71000000000000000000000000000000000000000000000000000000005f52601160045260245ffd5b5f610163826100c6565b915061016e836100c6565b92508282019050808211156101865761018561012c565b5b9291505056fea2646970667358221220af5d1daee70d13e479576765e9a266fdcd0a3fdc7578983d9666efb266a57ea164736f6c634300081a0033",
			"opcodes": "PUSH1 0x80 PUSH1 0x40 MSTORE CALLVALUE DUP1 ISZERO PUSH1 0xE JUMPI PUSH0 DUP1 REVERT JUMPDEST POP PUSH2 0x1C2 DUP1 PUSH2 0x1C PUSH0 CODECOPY PUSH0 RETURN INVALID PUSH1 0x80 PUSH1 0x40 MSTORE CALLVALUE DUP1 ISZERO PUSH2 0xF JUMPI PUSH0 DUP1 REVERT JUMPDEST POP PUSH1 0x4 CALLDATASIZE LT PUSH2 0x34 JUMPI PUSH0 CALLDATALOAD PUSH1 0xE0 SHR DUP1 PUSH4 0x1ADEA6CF EQ PUSH2 0x38 JUMPI DUP1 PUSH4 0x5A2EE019 EQ PUSH2 0x58 JUMPI JUMPDEST PUSH0 DUP1 REVERT JUMPDEST PUSH2 0x40 PUSH2 0x76 JUMP JUMPDEST PUSH1 0x40 MLOAD PUSH2 0x4F SWAP4 SWAP3 SWAP2 SWAP1 PUSH2 0xDE JUMP JUMPDEST PUSH1 0x40 MLOAD DUP1 SWAP2 SUB SWAP1 RETURN JUMPDEST PUSH2 0x60 PUSH2 0xC1 JUMP JUMPDEST PUSH1 0x40 MLOAD PUSH2 0x6D SWAP2 SWAP1 PUSH2 0x113 JUMP JUMPDEST PUSH1 0x40 MLOAD DUP1 SWAP2 SUB SWAP1 RETURN JUMPDEST PUSH0 DUP1 PUSH0 DUP1 PUSH1 0x2D SWAP1 POP PUSH1 0x59 PUSH0 DUP2 SWAP1 SSTORE POP PUSH1 0x1 PUSH0 SLOAD PUSH2 0x93 SWAP2 SWAP1 PUSH2 0x159 JUMP JUMPDEST PUSH0 DUP2 SWAP1 SSTORE POP PUSH1 0x1 PUSH0 SLOAD PUSH2 0xA6 SWAP2 SWAP1 PUSH2 0x159 JUMP JUMPDEST PUSH0 DUP2 SWAP1 SSTORE POP PUSH0 PUSH1 0x22 SWAP1 POP DUP2 PUSH0 SLOAD DUP3 SWAP5 POP SWAP5 POP SWAP5 POP POP POP SWAP1 SWAP2 SWAP3 JUMP JUMPDEST PUSH0 SLOAD DUP2 JUMP JUMPDEST PUSH0 DUP2 SWAP1 POP SWAP2 SWAP1 POP JUMP JUMPDEST PUSH2 0xD8 DUP2 PUSH2 0xC6 JUMP JUMPDEST DUP3 MSTORE POP POP JUMP JUMPDEST PUSH0 PUSH1 0x60 DUP3 ADD SWAP1 POP PUSH2 0xF1 PUSH0 DUP4 ADD DUP7 PUSH2 0xCF JUMP JUMPDEST PUSH2 0xFE PUSH1 0x20 DUP4 ADD DUP6 PUSH2 0xCF JUMP JUMPDEST PUSH2 0x10B PUSH1 0x40 DUP4 ADD DUP5 PUSH2 0xCF JUMP JUMPDEST SWAP5 SWAP4 POP POP POP POP JUMP JUMPDEST PUSH0 PUSH1 0x20 DUP3 ADD SWAP1 POP PUSH2 0x126 PUSH0 DUP4 ADD DUP5 PUSH2 0xCF JUMP JUMPDEST SWAP3 SWAP2 POP POP JUMP JUMPDEST PUSH32 0x4E487B7100000000000000000000000000000000000000000000000000000000 PUSH0 MSTORE PUSH1 0x11 PUSH1 0x4 MSTORE PUSH1 0x24 PUSH0 REVERT JUMPDEST PUSH0 PUSH2 0x163 DUP3 PUSH2 0xC6 JUMP JUMPDEST SWAP2 POP PUSH2 0x16E DUP4 PUSH2 0xC6 JUMP JUMPDEST SWAP3 POP DUP3 DUP3 ADD SWAP1 POP DUP1 DUP3 GT ISZERO PUSH2 0x186 JUMPI PUSH2 0x185 PUSH2 0x12C JUMP JUMPDEST JUMPDEST SWAP3 SWAP2 POP POP JUMP INVALID LOG2 PUSH5 0x6970667358 0x22 SLT KECCAK256 0xAF TSTORE SAR 0xAE 0xE7 0xD SGT 0xE4 PUSH26 0x576765E9A266FDCD0A3FDC7578983D9666EFB266A57EA164736F PUSH13 0x634300081A0033000000000000 "
		},
		"gasEstimates": {
			"creation": {
				"codeDepositCost": "90000",
				"executionCost": "139",
				"totalCost": "90139"
			},
			"external": {
				"hid()": "infinite",
				"m()": "2424"
			}
		},
		"methodIdentifiers": {
			"hid()": "1adea6cf",
			"m()": "5a2ee019"
		}
	},
	"abi": [
		{
			"inputs": [],
			"name": "hid",
			"outputs": [
				{
					"internalType": "uint256",
					"name": "",
					"type": "uint256"
				},
				{
					"internalType": "uint256",
					"name": "",
					"type": "uint256"
				},
				{
					"internalType": "uint256",
					"name": "",
					"type": "uint256"
				}
			],
			"stateMutability": "nonpayable",
			"type": "function"
		},
		{
			"inputs": [],
			"name": "m",
			"outputs": [
				{
					"internalType": "uint256",
					"name": "",
					"type": "uint256"
				}
			],
			"stateMutability": "view",
			"type": "function"
		}
	]
}